:020000040800F2
:100000000005002045010008490300084B030008D3
:100010004F030008530300085703000800000000C6
:100020000000000000000000000000005B0300086A
:100030005D030008000000005F0300086103000882
:100040005F0100085F0100085F0100085F01000810
:100050005F0100085F0100085F0100085F01000800
:100060005F0100085F0100085F0100085F010008F0
:100070005F0100085F0100085F0100085F010008E0
:100080005F0100085F0100085F0100085F010008D0
:100090005F0100085F0100085F0100085F010008C0
:1000A0005F0100085F0100085F0100085F010008B0
:1000B0005F0100085F0100085F0100085F010008A0
:1000C0005F0100085F0100085F0100085F01000890
:1000D0005F0100085F0100085F0100085F01000880
:1000E0005F0100085F0100085F0100085F01000870
:1000F0005F0100085F0100085F0100085F01000860
:100100005F0100085F0100085F0100085F0100084F
:100110005F0100085F0100085F0100085F0100083F
:100120005F0100085F0100085F0100085F0100082F
:10013000DFF80CD002F06CFE004800478B0300088B
:10014000000500200648804706480047FEE7FEE716
:10015000FEE7FEE7FEE7FEE7FEE7FEE7FEE7FEE777
:1001600047020008310100080CB500200190009002
:100170006C48006840F480306A49086000BF6948F4
:10018000006800F4003000900198401C0190009835
:1001900018B90198B0F5A06FF1D16248006800F479
:1001A000003010B10120009001E000200090009884
:1001B000012843D15C48006840F010005A490860AB
:1001C0000846006820F0030008600846006840F018
:1001D0000200086053484068524948600846406839
:1001E00048600846406840F48060486008464068BF
:1001F00020F47C1048600846406840F4E8104860ED
:100200000846006840F08070086000BF45480068FC
:1002100000F000700028F9D04248406820F0030048
:10022000404948600846406840F00200486000BF0E
:100230003C48406800F00C000828F9D10CBD10B50E
:10024000FFF792FF10BD10B53648006840F001007E
:1002500034490860084640683449084031494860DC
:1002600008460068324908402E4908600846006880
:1002700020F4802008600846406820F4FE004860B2
:100280004FF41F008860FFF7DAFF4FF00060294944
:10029000086010BD10B5002100200022214B5B68D2
:1002A00003F00C0121B1042906D0082928D107E068
:1002B000214B224C236027E01F4B204C236023E07E
:1002C000184B5B6803F47010164B5B6803F48032C4
:1002D000022303EB904022B9194B4343174C236090
:1002E0000DE0104B5B6803F4003323B1144B434320
:1002F000124C236003E0104B4343104C236003E097
:100300000D4B0E4C236000BF00BF064B5B68C3F370
:1003100003130C4CE15C094B1B68CB40074C23607A
:1003200010BD000000100240002002400000FFF855
:10033000FFFFF6FE08ED00E000127A00000000204A
:1003400000093D0004000020704700BFFEE700BF29
:10035000FEE700BFFEE700BFFEE77047704770474B
:100360007047000008B50121042001F039FE01208A
:10037000ADF8000003208DF8020014208DF8030072
:100380006946234801F070FB08BD08B5FFF75BFF25
:10039000482000F0B7FB00F08DF800F091FBFFF76C
:1003A000E1FF01211A4801F00CFC00F001FC00F013
:1003B00024FC00F003FF01F01BF801F0F8F825E041
:1003C00000F035FC1348038813480288134801885D
:1003D00013A002F047FD00F094FC1A48008800903A
:1003E00019480388194802881948018819A002F0A1
:1003F00039FD24A002F036FD00F0ECFE23A002F04F
:1004000031FD01F07DF924A002F02CFDD8E70000B9
:1004100000080140240000202200002020000020CD
:10042000CDD3C2DDD2C7A3BA58D6E13D2534642C62
:1004300059D6E13D2534642C5AD6E13D253464205B
:10044000200000002A0000202800002026000020B4
:100450002C000020BCD3CBD9B6C8BCC6A3BACEC230
:10046000B6C83D2534642C58D6E13D2534642C595A
:10047000D6E13D2534642C5AD6E13D253464202054
:1004800000000000C6F8D1B9BCC63A00CAFDD7D6F4
:10049000C2DEC5CC3A0000000D0A000000BF874A4A
:1004A000128802F04002002AF9D0C2B2834B1B1D11
:1004B0001A80704700B585B0012144F2040001F0B4
:1004C0008FFD4FF40070ADF8100018208DF8130068
:1004D00003208DF8120004A9794801F0C5FA4FF401
:1004E0008060ADF8100004208DF8130004A9744852
:1004F00001F0BAFA4FF4E13000900020ADF80400AA
:10050000ADF80600ADF80800ADF80C000C20ADF811
:100510000A006946694801F00AFE0121674801F0B6
:1005200092FE05B000BD70B504460D4600260DE0F4
:100530002178624801F0F4FE00BF80215F4801F09D
:100540005DFF0028F9D0641C701C86B2AE42EFDB60
:1005500070BDF0B503460D461646002729460A2E03
:1005600003D0002008702846F0BD33B9302001F8D0
:10057000010B002008702846F6E7002B03DA2D2037
:1005800001F8010B5B4242F210720DE093FBF2F4B2
:1005900004B937B104F1300001F8010B04FB123348
:1005A00001270A2092FBF0F2002AEFDC00200870FD
:1005B0002846D9E70FB470B586B006460CA801905E
:1005C00073E00B9800785C281CD10B98401C0B90B2
:1005D00000786E2809D072280FD10D21304601F025
:1005E0009FFE0B98401C0B900BE00A21304601F057
:1005F00097FE0B98401C0B9003E00B98401C0B904F
:1006000000BF4BE00B980078252840D10B98401C88
:100610000B900078642818D0732833D1019810C843
:1006200001900BE02178304601F07AFE00BF4021B6
:10063000304601F0E3FE0028F9D0641C2078002841
:10064000F0D10B98401C0B9020E0019820C801903D
:100650000A2202A92846FFF77CFF02AC0BE02178B2
:10066000304601F05DFE00BF4021304601F0C6FE7D
:100670000028F9D0641C20780028F0D10B98401C89
:100680000B9003E00B98401C0B9000BF06E00B980A
:1006900010F8011B0B90304601F042FE00BF4021D4
:1006A000304601F0ABFE0028F9D00B980078002806
:1006B00087D106B070BC5DF814FB00000038014023
:1006C00000080140002100E0491C8142FCD3704732
:1006D0000A2000BF011EA0F10100FBD1704710B538
:1006E0008021F64801F06DFAFFF7F2FF4021F34850
:1006F00001F067FAFFF7ECFF8021F04801F063FAA0
:10070000FFF7E6FF4021ED4801F05DFAFFF7E0FF5B
:1007100010BD10B58021E94801F055FAFFF7D8FF68
:100720004021E64801F04DFAFFF7D2FF8021E3486F
:1007300001F047FAFFF7CCFF10BD2DE9F041044668
:10074000264600251EE006F080077006060E4021B2
:10075000DA4801F038FAFFF7BBFF802F04D180217F
:10076000D64801F02EFA03E08021D44801F02BFA9C
:10077000FFF7AEFF4021D14801F023FAFFF7A8FFB1
:10078000681CC5B2082DDEDB4021CC4801F01BFA05
:10079000FFF79EFF8021C94801F013FAFFF798FF89
:1007A000BDE8F08138B504466CB98020ADF8000092
:1007B00014208DF8030003208DF802006946BF481D
:1007C00001F052F90BE0012C09D18020ADF80000B6
:1007D00048208DF803006946B84801F045F938BD56
:1007E00070B500254021B54801F0EDF9FFF770FF25
:1007F0008021B24801F0E5F90120FFF7D3FF002482
:1008000019E0FFF765FF4021AC4801F0DAF9FFF786
:100810005FFF8021A94801F0BAF9012801D1012622
:1008200000E0002646EA4500C5B24021A34801F099
:10083000CAF9601CC4B2082CE3DB0020FFF7B2FF4A
:10084000FFF746FF284670BD10B500240120FFF7D2
:10085000A9FF4021994801F0B4F9FFF739FF00E002
:10086000641C8021954801F092F9012803D141F2DE
:1008700088308442F4D34021904801F0A4F9FFF776
:1008800027FF0020FFF78EFF10BD10B540218B48D9
:1008900001F099F9FFF71CFF8021884801F093F9D6
:1008A000FFF716FF4021854801F08BF9FFF710FF95
:1008B0004021824801F087F9FFF70AFF10BD10B50B
:1008C00040217E4801F07FF9FFF702FF80217B483D
:1008D00001F077F9FFF7FCFE4021784801F071F94B
:1008E000FFF7F6FE4021754801F06DF9FFF7F0FEC5
:1008F00010BD70B504460D46FFF7F1FE2046FFF728
:100900001CFFFFF7A1FF2846FFF717FFFFF79CFF2B
:10091000FFF7E5FE611CC8B2FFF70FFFFFF794FF7A
:10092000FFF75EFF0646FFF7F4FE3220FFF7CAFE30
:10093000304670BD70B506460C461546FFF7CFFE33
:100940003046FFF7FAFEFFF77FFF2046FFF7F5FE80
:10095000FFF77AFF2846FFF7F0FEFFF775FFFFF776
:10096000D8FEFA20FFF7AEFE70BD70B505460C4606
:10097000FFF7B5FE2846FFF7E0FEFFF765FF2046CC
:10098000FFF7DBFEFFF760FFFFF7C3FEFA20FFF77C
:1009900099FE70BD2DE9F04106460F461546984672
:1009A000FFF79DFE3046FFF7C8FEFFF74DFF3846C4
:1009B000FFF7C3FEFFF748FFFFF791FE711CC8B2B7
:1009C000FFF7BBFEFFF740FF00240DE0FFF708FF35
:1009D00008F80400601CA84202DAFFF756FF01E0A5
:1009E000FFF76DFF601CC4B2AC42EFDBFFF791FE76
:1009F000FA20FFF767FEBDE8F0812DE9F0410446DB
:100A00000D46FFF76CFE2046FFF797FEFFF71CFF31
:100A10002846FFF792FEFFF717FFFFF760FE611C05
:100A2000C8B2FFF78AFEFFF70FFFFFF7D9FE0646B1
:100A3000FFF72BFFFFF7D4FE0746FFF740FFFFF756
:100A400068FEFA20FFF73EFE47EA06284046BDE86A
:100A5000F0812DE9F04704460D46FFF740FE2046A1
:100A6000FFF76BFEFFF7F0FE2846FFF766FEFFF785
:100A7000EBFEFFF734FE611CC8B2FFF75EFEFFF726
:100A8000E3FEFFF7ADFE0746FFF7FFFEFFF7A8FE08
:100A90000646FFF7FAFEFFF7A3FE8046FFF70FFFBB
:100AA000FFF737FEFA20FFF70DFEC7EB074000EB1C
:100AB000062000EB08094846BDE8F087000C01401D
:100AC00008B50121082001F08BFA4020ADF80000A4
:100AD00014208DF8030003208DF8020069460848B1
:100AE00000F0C2FF8020ADF8000014208DF8030054
:100AF00003208DF802006946014800F0B5FF08BDEB
:100B0000000C014010B504466FF0040001F01FFD19
:100B1000E11704EB5171C1F3C701234A117010466C
:100B2000007800EB4001C1EBC0104FF6FF7101EA05
:100B3000C0001E49088010BD01461C4A12884A4365
:100B40004FF0E0235A6100229A6101221A6100BF2E
:100B50004FF0E022106900F001021AB100F4803277
:100B6000002AF5D000224FF0E0231A619A61704705
:100B700001460D4A12784A434FF0E0235A610022A1
:100B80009A6101221A6100BF4FF0E022106900F063
:100B900001021AB100F48032002AF5D000224FF091
:100BA000E0231A619A617047180000201A000020A3
:100BB00010B500226B21D020FFF7BCFE07221921BF
:100BC000D020FFF7B7FE06221A21D020FFF7B2FE91
:100BD00042223721D020FFF7ADFE40226A21D020EB
:100BE000FFF7A8FE18221B21D020FFF7A3FE012249
:100BF0001C21D020FFF79EFE10BD10B500247521EA
:100C0000D020FFF776FE0446682C01D1012000E0D9
:100C1000002040B101218A4800F0D5FF214689A07B
:100C200002F020F902E08FA002F01CF910BD2DE9BE
:100C3000F0414421D020FFF75CFE94490870432125
:100C4000D020FFF756FE9149487008460078497851
:100C500040EA01208E4908800846008801F005FF1F
:100C600006464FF066328B4B01F071FE044601F0F0
:100C700036FF874908804621D020FFF73AFE834996
:100C800088704521D020FFF734FE8049C87008469F
:100C90008078C97840EA01207F49088008460088AA
:100CA00001F0E3FE06464FF066327A4B01F04FFE4C
:100CB000044601F014FF784908804821D020FFF74E
:100CC00018FE724908714721D020FFF712FE6F49C4
:100CD000487108460079497940EA01206F49088047
:100CE0000846008801F0C1FE06464FF06632694BA7
:100CF00001F02DFE044601F0F2FE68490880BDE8CF
:100D0000F0812DE9F05F3C21D020FFF7F2FD5F4933
:100D100008703B21D020FFF7ECFD5C494870084685
:100D20000078497840EA01205D490880084600883B
:100D300001F085FE06464FF08D4101F0B1FC0546FD
:100D4000584901F07BFC044601F0B5FE5449088087
:100D50003E21D020FFF7CDFD4C4988703D21D020A9
:100D6000FFF7C7FD4949C87008468078C97840EA4E
:100D700001204D4908800846008801F060FE0646C3
:100D80004FF08D4101F08CFC0546464901F056FCC0
:100D9000044601F090FE444908804021D020FFF72E
:100DA000A8FD3A4908713F21D020FFF7A2FD37493D
:100DB000487108460079497940EA01203B4908809A
:100DC0000846008801F03BFE06464FF08D4101F0D9
:100DD00067FC0546334901F031FC044601F06BFE27
:100DE000324908804221D020FFF783FD27498871CE
:100DF0004121D020FFF77DFD2449C8710846807944
:100E0000C97940EA01202A4908800846008801F093
:100E10002CFE80460022274B01F099FD0646264A0B
:100E2000264B01F07BFC04460022254B01F01DFD02
:100E3000824601F054FE1E490880BDE8F09F000084
:100E4000000801400DC9E8B1B84D5036303530CA00
:100E5000B6B1F0B3C9B9A6A3AC69643D30782578C2
:100E60000D0A0D000DB4EDCEF321CEDEB7A8C9E812
:100E7000B1F0C9E8B1B84D5036303530A3AC696433
:100E80003D307825780D0A0D00000000E8000020B4
:100E90002000002066663040220000202400002050
:100EA000260000200000C842280000202A00002060
:100EB0002C00002000407540A4703D0AD7434240FA
:100EC0000000244010B51E21EE20FFF74EFD10BD9E
:100ED00030B585B000250020049000240BE0A02050
:100EE00000EB4400C1B2EE20FFF787FDF94921F87D
:100EF0001400601CC4B2062CF1DDF7A001F0B2FFB3
:100F0000F4488089F3494989F24A1289F14BDB8818
:100F1000CDE90032CDE90210EE4883884288F5A180
:100F2000FE48FFF747FB05B030BD70B504462146CB
:100F3000EE20FFF71AFD0A20FFF7FEFD0021EE204C
:100F4000FFF787FD0546284670BD2DE9F0410446B0
:100F50002046FFF7EAFFF24908606420FFF7ECFD46
:100F6000DC494989EE4A1268A2EB012001F067FDD5
:100F7000EC490860D749888901F061FD0746E948D6
:100F80000168384601F05AFB06464FF0964101F0E1
:100F900087FB0546E44901F0F9FAE4490860BDE839
:100FA000F0812DE9F14F82B00298FFF7BEFFE049D2
:100FB00008606420FFF7C0FDC649088901F03FFDC5
:100FC0008346D8480168584601F038FB824601F054
:100FD0009FFD80460022D74B01F0B9FC04460D4628
:100FE000BC498988080401F040FD064622462B468C
:100FF00001F094FBD04A03C2B649C88801F01FFD36
:101000008346C8480168584601F018FB824601F043
:101010007FFD80460022C94B01F099FC04460D4635
:10102000AC494988C80301F020FD064622462B46FC
:1010300001F074FBC24A03C2BB49BC48006801F01E
:1010400097FD72D2B7480168006801F0F7FA0446CC
:101050004FF09E4101F024FBBA490860B249B34801
:10106000006801F0E5FA0446AF49B048006801F0B5
:10107000DFFA0546214601F0E1FAB3490860084667
:10108000006801F045FD06460022B04B01F0EDFB83
:10109000044601F050FDAE490860AB48006801F01D
:1010A00037FD06460022AB4B01F0DFFB044601F0A2
:1010B00042FDA9490860A9499C48006801F058FD13
:1010C0003AD2A7499948006801F060FA0446A44959
:1010D0009648006801F05AFA0546214601F0AEFA3A
:1010E00099490860084601689E4801F0A7FA04463D
:1010F00097480168204601F049FA954908609248EE
:10110000006801F005FD80460022974B01F0ADFB21
:1011100006468B480CC8304601F000FB044601F03F
:101120000AFD8D49086007E0FFE700208549086057
:101130008749086088490860824801687B480068E0
:1011400001F076FA794908608148006801F0E0FC16
:10115000044679480CC8204601F084FB764A03C255
:101160007D48006801F0D4FC044675480CC8204650
:1011700001F078FB724A03C26D48006801F075FC0B
:10118000CDE900016E480CC8009801F06EFB824664
:101190000022764B01F0DBFB804667480CC84046D6
:1011A00001F05DFB064600226E4B01F0D0FB0446C9
:1011B00001F0C1FC6E490860BDE8FE8F10B5FFF775
:1011C00081FE6420FFF7B8FCFFF782FE6420FFF782
:1011D000B3FC10BD70B500245820FFF7B6FE4820C0
:1011E000FFF7DFFE6248006801F04CFC61490860CF
:1011F00000215F48006801F0BBFC08D25D48006830
:1012000040425C4908602D205B49087002E02020C4
:1012100059490870574800685849B0FBF1F0303020
:1012200055494870534800685449B0FBF1F201FB3E
:101230001200504908600846006842F21071B0FB85
:10124000F1F030304C4988704A48006842F2107121
:10125000B0FBF1F201FB1200464908600846006845
:101260004FF47A71B0FBF1F030304349C870414817
:1012700000684FF47A71B0FBF1F201FB12003D49B6
:101280000860084600686421B0FBF1F030303A494C
:101290000871384800686421B0FBF1F201FB1200CC
:1012A000344908602E2034494871324800680A21C8
:1012B000B0FBF1F03030304988712E4800680A21C7
:1012C000B0FBF1F201FB12002A49086008460078E1
:1012D000303055E0F20000200DC9E8B1B84D53356B
:1012E00036313130314241B6C1C8A150524F4D3A2A
:1012F000200D00000D43313D25642C43323D256413
:101300002C43333D25642C43343D25642C43353D2B
:1013100025642C43363D25640D0A0D00003801403C
:10132000340000203C0000200000FA44400000206F
:1013300030000020000060404800002000007040A5
:10134000500000204400002058000020000004400D
:101350005C0000200000F43F600000200080BBC45F
:101360000080BB440000E040000016400000404107
:10137000380000206400002068000020A0860100E2
:101380001049C87110A001F06DFD002409E00D485E
:10139000015D0FA001F066FD1420FFF7CDFB601C7E
:1013A000C4B2082CF3DB0BA001F05CFD0B48006815
:1013B00001F0AEFB05462A460B4609A001F052FD9E
:1013C00070BD00006800002050726573733A000021
:1013D000256300006D626172202020004000002023
:1013E00054656D703A25342E3366A1E34320200006
:1013F00070B50A213C20FFF77CFA04460B213C2003
:10140000FFF777FA05460C213C20FFF772FA0646F3
:10141000482C07D1342D05D1332E03D1F3A001F090
:1014200021FD02E0F8A001F01DFD70BD10B5FE48E1
:101430000068FE490968441804EBD471481001F0B3
:10144000F5FAFB490860FB480068FB490968441845
:1014500004EBD471481001F0E9FAF8490860F84843
:101460000068F8490968441804EBD471481001F089
:10147000DDFAF549086010BDF44B1860F44B1860B4
:10148000F44B1960F44B1960F44B1A60F44B1A607A
:10149000704770B503460C461546184621462A4645
:1014A000EA4E3668B04201DDE84E3060E84E3668FC
:1014B000B04201DAE64E3060E64E3668B14201DDF8
:1014C000E44E3160E44E3668B14201DAE24E3160FA
:1014D000E24E3668B24201DDE04E3260E04E3668E0
:1014E000B24201DADE4E326070BDD8480068D84999
:1014F0000968401A05D4D5480068D5490968401ADA
:1015000004E0D3480068D1490968401A002809DD81
:10151000CE490968CE4A1268881800EBD07149108C
:10152000D04A1160CB480068CB490968401A05D4FD
:10153000C8480068C8490968401A04E0C6480068FD
:10154000C4490968401A002809DDC2490968C24A2D
:101550001268881800EBD0714910C34A1160BF4867
:101560000068BF490968401A05D4BC480068BC49F6
:101570000968401A04E0BA480068B8490968401A86
:10158000002809DDB5490968B54A1268881800EBDA
:10159000D0714910B54A11607047B24B1B68C01A30
:1015A000B14B1B68C91AB14B1B68D21A70472DE9A1
:1015B000F04F85B000200390049002901522002186
:1015C0003C20FFF7B7F9012202213C20FFF7B2F9D6
:1015D0000520FFF7B1FA03213C20FFF78AF98DF8C7
:1015E0000D0004213C20FFF784F98DF80E0007213F
:1015F0003C20FFF77EF98DF80F0008213C20FFF713
:1016000078F98DF8100005213C20FFF772F98DF86C
:10161000110006213C20FFF76CF98DF812009DF8AF
:101620000E009DF80D1040EA0120914908609DF8D8
:1016300010009DF80F1040EA01208E4908609DF8C7
:1016400012009DF8111040EA01208B49086088487B
:101650000068B0F5004F06DB85480068A0F57F40C4
:10166000FF388349086083480068B0F5004F06DB07
:1016700080480068A0F57F40FF387E4908607E48BA
:101680000068B0F5004F06DB7B480068A0F57F409E
:10169000FF38794908607648006801F0D5F980463E
:1016A00089467448006801F0CFF942464B46CDE9BF
:1016B000000102F0D7F90646704A714B01F0D5F8E7
:1016C000044600226F4B01F029F8824601F033FAFC
:1016D0006D490860684803686648026864480168A4
:1016E0006AA001F0BFFB6848006801F011FA0446E7
:1016F00022460B466EA001F0B5FB05B0BDE8F08FA9
:101700002DE9FF5F002002900390142200213C206D
:10171000FFF710F9202201213C20FFF70BF90022EE
:1017200002213C20FFF706F90520FFF705FA032107
:101730003C20FFF7DEF88DF8090004213C20FFF77C
:10174000D8F88DF80A0007213C20FFF7D2F88DF871
:101750000B0008213C20FFF7CCF88DF80C00052188
:101760003C20FFF7C6F88DF80D0006213C20FFF75E
:10177000C0F88DF80E009DF80A009DF8091040EAA7
:1017800001203B4908609DF80C009DF80B1040EAD1
:101790000120384908609DF80E009DF80D1040EAC0
:1017A00001203549086032480068314908603148F5
:1017B0000068304908602E480068B0F5004F06DB2D
:1017C0002B480068A0F57F40FF3829490860294868
:1017D0000068B0F5004F06DB26480068A0F57F40A2
:1017E000FF38244908602448006869E00DC9E8B161
:1017F000B8484D43353737334CC9E8B1F0B3C9B9B0
:10180000A6210D0A0D0000000DB4EDCEF321CEDEB1
:10181000B7A8CAB6B1F0C9E8B1B8484D43353737B3
:10182000334C210D0A0D00007C00002088000020B0
:1018300098000020800000208C0000209C000020E8
:101840008400002090000020A0000020B0000020B4
:10185000B4000020B8000020BC000020C000002020
:10186000C4000020C8000020CC000020D0000020D0
:10187000700000207400002078000020775AF01AD1
:10188000DCA54C4000806640940000200DB4BFBE33
:10189000BBB5C4B5D8B4C5B2E2C1BFD6B5A3BA789A
:1018A0003D25642C793D25642C7A3D25642000007B
:1018B0000D20616E676C653D2566200D0A000000F5
:1018C000B0F5004F06DB27480068A0F57F40FF38E1
:1018D000244908602448006801F0B6F806460F461F
:1018E0002248006801F0B0F8804632463B4602F0DC
:1018F000B9F804461E4A1F4B00F0B7FF824600228B
:101900001D4B00F00BFFCDE9000101F014F91B495C
:1019100008601B491948006800F038FE1749086044
:1019200018491648006801F02DF906D215491348E8
:10193000006800F07DFE114908600A4803680B4802
:1019400002680948016810A001F08CFA0B48006891
:1019500001F0DEF8044622460B4610A001F082FAA0
:10196000BDE8FF9F78000020700000207400002078
:10197000775AF01ADCA54C400080664094000020A5
:101980000000C8420000B4430D20783D25642C7946
:101990003D25642C7A3D2564200000000D20616EF9
:1019A000676C653D2566200010B50446CC4884422E
:1019B00008D10121042000F02DFB0021042000F0BB
:1019C00029FB46E0C748844208D10121082000F0E5
:1019D00021FB0021082000F01DFB3AE0C2488442B0
:1019E00008D10121102000F015FB0021102000F08B
:1019F00011FB2EE0BD48844208D10121202000F0D7
:101A000009FB0021202000F005FB22E0B8488442B9
:101A100008D10121402000F0FDFA0021402000F013
:101A2000F9FA16E0B348844208D10121802000F081
:101A3000F1FA0021802000F0EDFA0AE0AE4884427D
:101A400007D10121801500F0E5FA0021A01500F072
:101A5000E1FA10BD10B50121084600F0DBFA0021C3
:101A6000012000F0D7FA10BD2DE9F0410246002513
:101A70000026002000230024002791F803C00CF06A
:101A80000F0591F803C00CF0100CBCF1000F03D04F
:101A900091F802C04CEA050591F800C0BCF1000FB6
:101AA00031D0146800202BE04FF0010C0CFA00F349
:101AB000B1F800C00CEA03069E4220D183004FF02B
:101AC0000F0C0CFA03F7BC4305FA03FC4CEA0404C0
:101AD00091F803C0BCF1280F06D14FF0010C0CFAAD
:101AE00000FCC2F814C00AE091F803C0BCF1480F32
:101AF00005D14FF0010C0CFA00FCC2F810C0401CDC
:101B00000828D1D31460B1F800C0BCF1FF0F34DD58
:101B1000546800202EE000F1080C4FF0010808FA8C
:101B20000CF3B1F800C00CEA03069E4221D18300F9
:101B30004FF00F0C0CFA03F7BC4305FA03FC4CEA18
:101B4000040491F803C0BCF1280F05D100F1080C82
:101B500008FA0CF8C2F8148091F803C0BCF1480FE1
:101B600007D100F1080C4FF0010808FA0CF8C2F890
:101B70001080401C0828CED35460BDE8F0814FF699
:101B8000FF710180022181700421C17070470246FB
:101B9000002093680B400BB1012000E0002070474B
:101BA0000146886880B2704702460020D3680B4027
:101BB0000BB1012000E0002070470146C86880B2E8
:101BC000704701617047416170470AB1016100E0EF
:101BD00041617047C16070474FF480320A438261AF
:101BE0008161826182698269704702460020434BAD
:101BF00018684FF68073184040EA021008433F4BC4
:101C0000186070473E49C8617047F0B50A46002326
:101C100000240021002500F00046B6F1004F02D15B
:101C2000364EF16901E0354E7168C0F3034583B269
:101C300000F44016B6F5401F08D121F070612F4E18
:101C4000766826F070662D4F7E6012E000F48016F4
:101C5000B6F5801F06D1032606FA05F4A14341F02C
:101C6000706106E0460D360103FA06F6B14341F015
:101C7000706122B1460D360103FA06F6314300F0D9
:101C80000046B6F1004F02D11C4EF16101E01B4E3F
:101C90007160F0BD30B500228B071C0F0F2303FAD3
:101CA00004F2164B08338C1053F824309343134C32
:101CB00008348D1044F8253023468C1053F8243016
:101CC0008C07240F00FA04F423430C4C08348D10C5
:101CD00044F8253030BD0A49DC3108607047000007
:101CE00000080140000C01400010014000140140B8
:101CF00000180140001C014000200140000001408C
:101D000000002042DF48006840F00100DD49086023
:101D100008464068DC490840DA49486008460068DF
:101D2000DA490840D74908600846006820F4802056
:101D300008600846406820F4FE0048604FF41F0029
:101D400088607047CF49096821F48031CD4A11601D
:101D50001146096821F480211160B0F5803F03D05D
:101D6000B0F5802F0ED106E0C649096841F48031F4
:101D7000C44A116007E0C349096841F4A021C14A7F
:101D8000116000E000BF00BF704710B5014600229F
:101D9000002300204A11012A02D1BA4C236806E030
:101DA000022A02D1B74C236A01E0B64C636A01F003
:101DB0001F02012494401C400CB1012000E00020CF
:101DC00010BD38B5002000900024002500BF312050
:101DD000FFF7DBFF05460098401C00900098B0F527
:101DE000A06F01D0002DF2D03120FFF7CEFF08B157
:101DF000012400E00024204638BD01460020A14A0D
:101E0000106820F0F80040EAC10010607047A04957
:101E100008607047024600209A4B586820F47C10F6
:101E200042EA01031843974B586070479849086687
:101E3000704701460020934A506820F00300084391
:101E4000506070478F48406800F00C0070470146B2
:101E500000208C4A506820F0F00008435060704722
:101E600001460020874A506820F4E0600843506033
:101E7000704701460020834A506820F4605040EAD1
:101E8000C1005060704729B17E4A527A02437D4BAF
:101E90005A7204E07B4A527A82437A4B5A727047F4
:101EA0007B49D8310860704701460020754A506868
:101EB00020F440400843506070470021714A2032AE
:101EC0001170704A82F82010012802D004280AD12B
:101ED00004E001216B4A2032117005E00521694AB6
:101EE0002032117000E000BF00BF704769490860F0
:101EF00070476449096A0143624A11627047654943
:101F000044390860704730B50021002200240023C6
:101F10005C4D6D6805F00C0121B1042905D008293C
:101F200023D105E05C4D056022E05B4D05601FE0BC
:101F3000544D6D6805F47012524D6D6805F480348F
:101F4000022505EB92421CB9544D554305600BE048
:101F50004C4D6D6805F400351DB1504D554305607D
:101F600002E04D4D5543056002E04B4D056000BF5A
:101F700000BF444D6D6805F0F0010909484D6B5CE8
:101F80000568DD4045603F4D6D6805F4E061090A74
:101F9000434D6B5C4568DD4085603A4D6D6805F4E6
:101FA0006051C90A3E4D6B5C4568DD40C560354DEA
:101FB0006D6805F44041890B3A4D6B5CC568B5FB13
:101FC000F3F5056130BD29B12E4A526902432D4B0C
:101FD0005A6104E02B4A526982432A4B5A61704786
:101FE00029B1284A92690243264B9A6104E0254AA6
:101FF00092698243234B9A61704729B1214AD26981
:102000000243204BDA6104E01E4AD26982431D4B31
:10201000DA61704729B11B4AD2680243194BDA6072
:1020200004E0184AD2688243164BDA60704729B13F
:10203000144A12690243134B1A6104E0114A1269EF
:102040008243104B1A61704712494039086070474B
:102050000F49C86470470B49C87170470948406A06
:1020600040F0807007494862704701460020054AE9
:1020700092680A400AB1012000E00020704701493F
:1020800088727047001002400000FFF8FFFFF6FE64
:10209000000042428004424200127A0000093D00E2
:1020A000D4000020E400002010B50446FB48844220
:1020B00009D101218803FFF7ADFF00214FF48040D3
:1020C000FFF7A8FF32E0F648844209D10121480415
:1020D000FFF7ADFF00214FF40030FFF7A8FF25E028
:1020E000F048844209D101218804FFF7A0FF0021B4
:1020F0004FF48020FFF79BFF18E0EB48844209D1A2
:102100000121C804FFF793FF00214FF40020FFF7DF
:102110008EFF0BE0E548844208D101210805FFF756
:1021200086FF00214FF48010FFF781FF10BD2DE9DD
:10213000F04786B005460E460024A24600BFA146E1
:102140000027B08900B100BF2F462C8A4CF6FF70E3
:102150000440F08804432C82AC894EF6F31004400E
:10216000B08831890843718908430443AC81AC8A43
:102170004FF6FF400440B0890443AC8201A8FFF74A
:10218000C2FEC648874202D1DDF810A001E0DDF8AA
:102190000CA0A88900F4004040B10AEBCA0000EB93
:1021A0000A1031684900B0FBF1F807E00AEBCA00F9
:1021B00000EB0A1031688900B0FBF1F86420B8FB2D
:1021C000F0F004012009642101FB1089A88900F4C2
:1021D000004040B1322000EBC900B0FBF1F000F04C
:1021E0000700044308E0322000EB09106421B0FB33
:1021F000F1F000F00F0004432C8106B0BDE8F08739
:102200004FF41651016000218180C18001810C21B1
:10221000418100218181704710B502460020108A5B
:102220004FF2FF0318400B884C8823438C882343CC
:10223000CC8823431843108210BD002101804180C7
:102240008180C180704721B1828942F4005282812D
:1022500004E082894DF6FF731A4082817047F0B521
:102260000346002400260025002040F66A17B942E4
:1022700000D100BF1846C1F3421401F01F06012728
:1022800007FA06F5012C01D10C3004E0022C01D133
:10229000103000E014301AB107682F43076002E0E5
:1022A0000768AF430760F0BD1AB1838A0B4383828E
:1022B00002E0838A8B4383827047028A4FF6F07371
:1022C0001A400282028A0A430282704782894FF2D0
:1022D000FF731A40828182890A438281704721B14B
:1022E000828942F00202828104E082894FF6FD7306
:1022F0001A4082817047028A4FF6DF731A400282C9
:10230000028A0A430282704721B1028A42F4804263
:10231000028204E0028A4BF6FF731A400282704781
:10232000C1F308028280704701468888C0F3080024
:102330007047818941F0010181817047028BD2B2DF
:102340000283028B42EA012202837047028B02F46D
:102350007F420283028B0A430283704721B1828A43
:1023600042F02002828204E0828A4FF6DF731A4034
:102370008282704721B1828A42F01002828204E098
:10238000828A4FF6EF731A408282704721B1828AA7
:1023900042F00802828204E0828A4FF6F7731A4004
:1023A0008282704721B1828942F40042828103E037
:1023B0008289C2F30E028281704721B1828A42F47F
:1023C0000062828204E0828A4FF2FF731A408282A6
:1023D0007047828A4FF6FB731A408282828A0A43D0
:1023E0008282704721B1828A42F00202828204E036
:1023F000828A4FF6FD731A4082827047024600209F
:10240000B1F5007F00D100BF13880B400BB1012054
:1024100000E00020704701F40072B2F5007F00D1A7
:1024200000BFCA430280704770B5024600240023F3
:102430000025002040F66A16B14200D100BFC1F36A
:10244000421501F01F03012606FA03F3012D02D104
:102450009689334006E0022D02D1168A334001E00E
:10246000968A33400C12012606FA04F4168834408A
:1024700013B10CB1012000E0002070BD10B50022A6
:10248000002340F66A14A14200D100BF0A120124C1
:102490009440A3B2DC43048010BD0000003801402A
:1024A0000044004000480040004C00400050004004
:1024B00031490143314A1160704770B50021002352
:1024C0000F22C47804B32D4C246804F4E064C4F5EE
:1024D000E064210AC1F10403CA40447804FA03F11C
:1024E0008478144021430901254C0678A1550478CD
:1024F00004F01F050124AC4005786D11AD0005F115
:10250000E025C5F8004109E0047804F01F05012426
:10251000AC401C4D0678761145F8264070BD1A4A2D
:102520000A400243154B1B1F1A60704739B1134A0A
:10253000121D12680243114B1B1D1A6006E00F4A60
:10254000121D126882430D4B1B1D1A607047042830
:1025500008D14FF0E021096941F004014FF0E02279
:10256000116107E04FF0E021096921F004014FF00B
:10257000E0221161704700000000FA050CED00E058
:1025800000E400E080E100E080FFFF1FF0B480EA9B
:102590000102D40F4200B2EB410F02D202460846BC
:1025A00011464A0042D0C30DDDB2C1F3C752AD1A85
:1025B000202D35DAC1F3160141F4000204B1524274
:1025C000C5F1200602FA06F12A411044B3EBD05FB0
:1025D00023D0C4B1012DA0EBC35009DCF0BC4FF0F7
:1025E000004202EAC352DBB200F5000000F055BB26
:1025F000400000F1807000EBC350A0F1807040EA11
:10260000D170490009E0490841EAC071A0EBC3500C
:1026100000F50000400800EBC350F0BC00F034BBF4
:102620006142012202EB4101001BF6E7F0BC70475A
:1026300081F00041AAE780F00040A7E780EA0102AC
:1026400010B502F00043400022D04A001FD0010E16
:1026500001EB1261C0F35600C2F3560240F40000D1
:1026600042F40002A0FB022000047F39140400D0D1
:10267000401C50EA124001D44000491EC2B20C0670
:1026800004EBD010401C4008802A02D003E0002058
:1026900010BD20F00100002900DA0020184310BD11
:1026A00030B480EA010202F0004530F0004221F02F
:1026B000004013D090B1C30DD40DC2F31601C0F386
:1026C0001600E41A41F4000140F400027D34914206
:1026D00001D3641C00E04900002C02DA30BC002069
:1026E00070474FF400000023914201D3891A03433D
:1026F00040084FEA4101F7D151B1914202D14FF068
:10270000004105E002D24FF0010101E06FF001014C
:1027100003EBC450284430BC00F0B6BA2DE9FE4F9C
:10272000804681EA0300C00F0C46009021F0004172
:1027300023F00045B8EB0200A94105D240462146EE
:1027400090461C460B46024623F00040104347D0FB
:10275000270DC7F30A00C3F30A510290401A0190F3
:1027600040286BDAC3F3130040F4801B00989246B4
:1027700020B10023D2EB030A63EB0B0B01985946FF
:10278000C0F14002504600F04EFA06460D46504653
:102790005946019A00F066FA10EB080061410024E6
:1027A00087EA115284EAE7731A4340D0009A62B371
:1027B000019A012A4FEA075215DC001B61EB020166
:1027C0004FF0004202EA0752CDE90042001C41F5F9
:1027D000801132462B4600F09DFA03B0BDE8F08F21
:1027E00040462146F9E7001B61EB0201001C41F560
:1027F000801300185B412018A2F5001747EB030176
:1028000040EAD570B6196D4111E06D084FEA360601
:1028100045EAC0754FEA0752001B61EB0201001C3C
:1028200041F5801149084FEA300000195141324604
:102830002B4603B0BDE8F04F00F05DBA00980122CE
:1028400040000023D0EB020263EBE07300982146C6
:102850004FEAE074B8EB000061EB0401E9E783F0B4
:1028600000435BE781F0004158E72DE9FE4F81EA24
:10287000030404F0004421F0004100944FF0000BE9
:1028800023F0004350EA01045ED052EA03045BD017
:10289000C3F30A54C1F30A552C44A4F2F33401944F
:1028A000A0FB0254C1F3130141F48011C3F31303DD
:1028B00043F4801301FB024400FB034E840A970A91
:1028C00044EA815447EA8357A4FB076802958D0ABE
:1028D00005FB07854FEA932C04FB0C542705029D4A
:1028E0004FEA065847EA1637B5EB08056EEB070CBA
:1028F000870E920E47EA811742EA8312A7FB020174
:10290000B6EB0B0164EB00042B0D43EA0C335E18AD
:1029100044EB1C50DA465146E7FB0201C5F31304B1
:102920004FEA0B3343EA14534FEA0432019C43EA63
:102930000603A4F10C040294009CCDE900B400F05D
:10294000E9F903B0BDE8F08F00200146F9E72DE971
:10295000F04D81EA030404F0004B21F000451446D9
:102960004FF0000A23F0004150EA050220D054EA5B
:1029700001021DD0C5F30A570246C5F31303C1F384
:102980001300C1F30A5640F4801543F48013A7EBFB
:102990000608101BD64608F2FD3873EB050002D37B
:1029A00008F1010801E092185B41B8F1000F03DA69
:1029B00000200146BDE8F08D00204FF4801106464E
:1029C00084460EE0171B73EB050705D3121B63EB60
:1029D000050306434CEA010C49084FEA30009218FF
:1029E0005B4150EA0107EDD152EA030012D082EABE
:1029F000040083EA0501084305D0101BAB4106D251
:102A00000122002306E000224FF0004302E06FF0B5
:102A1000010253101AEB06004CEB085110EB0A00B0
:102A200041EB0B01BDE8F04D00F065B9C10F80EA44
:102A3000E0700844CA079623002100F02EB99623BF
:102A40000022114600F029B90EB5C10F80EAE070EE
:102A50000844CA07002140F233438DE80E000A46BD
:102A60000B4600F057F903B000BD0EB540F23341FC
:102A700002910021CDE900110A460B4600F04AF907
:102A800003B000BD00F0004220F00040C10DC0F3D3
:102A9000160040F400007F2901DA002070479629D3
:102AA00003DCC1F19601C84001E096398840002A54
:102AB000F4D04042704720F00040C10DC0F3160032
:102AC00040F400007F2901DA00207047962903DCDA
:102AD000C1F19601C8407047963988407047C1F3EC
:102AE0000A5210B5C1F3130140F2FF3341F48011D3
:102AF0009A4201DA002010BD40F233439A42A2F21A
:102B0000334203DC524200F09DF810BD904010BDEE
:102B100000F0004230F000400AD0C10D01F56071B4
:102B2000C0F3160042EA0151C20840071143704742
:102B300000200146704701F0004330B421F000410D
:102B400050EA010206D00A0DA2F56072C1F313012A
:102B5000002A02DC30BC00207047440F44EAC10464
:102B6000C100E01830BC00EBC25000F08DB800008E
:102B7000002801DBC0F10040002901DBC1F1004168
:102B800081427047002801DBC0F10040002901DBD1
:102B9000C1F100418842704730B50B460146002024
:102BA0002022012409E021FA02F59D4205D303FA0F
:102BB00002F5491B04FA02F52844151EA2F1010290
:102BC000F1DC30BD2DE9F05F0546002092469B46C2
:102BD00088460646814640241BE028464146474633
:102BE000224600F02FF853465A46C01A914110D39E
:102BF00011461846224600F016F82D1A67EB010818
:102C00004F4622460120002100F00DF817EB000985
:102C10004E41201EA4F10104DFDC484631462A461D
:102C20004346BDE8F09F202A04DB203A00FA02F177
:102C3000002070479140C2F1200320FA03F31943AA
:102C400090407047202A04DB203A21FA02F000214C
:102C5000704721FA02F3D040C2F1200291400843AC
:102C600019467047202A06DBCB17203A41FA02F0BA
:102C700043EAE07306E041FA02F3D040C2F12002D9
:102C800091400843194670470029A8BF7047401C6F
:102C9000490008BF20F00100704710B4B0FA80FC72
:102CA00000FA0CF050EA010404BF10BC704749B1AF
:102CB000CCF1200421FA04F411FA0CF118BF01211F
:102CC00021430843A3EB0C01CB1D4FEA00614FEAFF
:102CD000102042BF002010BC704700EBC3501044CE
:102CE0000029A4BF10BC7047401C490008BF20F059
:102CF000010010BC704710B5141E73F1000408DA0F
:102D0000401C41F1000192185B411A4301D120F0AF
:102D1000010010BD2DE9F04D92469B4611B1B1FA6C
:102D200081F202E0B0FA80F220329046FFF77BFF9A
:102D300004460F4640EA0A0041EA0B0153465A4650
:102D4000084313D0114653EA010019D0C8F14002DC
:102D50005046FFF777FF05460E4650465946424615
:102D6000FFF761FF084305D0012004E02046394603
:102D7000BDE8F08D0020054346EAE0762C4337435A
:102D80000A986305E40AA0EB08000022FD0A44EA61
:102D900047540A3002D500200146E9E70105101921
:102DA0006941DDE9084500196941BDE8F04DA2E738
:102DB000C1F30A52C1F3130140F2FF3341F4801111
:102DC0009A4202DA00200146704740F233439A42A9
:102DD000A2F2334202DC5242FFF734BFFFF723BFB7
:102DE00030B5041E71F1000404DB4FF00044404292
:102DF00064EB0101141E73F1000405DB1C464FF067
:102E00000043524263EB0403994208BF904230BD35
:102E1000064C074D06E0E06840F0010394E8070027
:102E200098471034AC42F6D3FDF786F9883C000889
:102E3000A83C000870B521F0004303430CD0C1F357
:102E40000A550024D5EB040564EB0403D617AD1A2C
:102E5000B34102DB0020014670BD201841EB025156
:102E600070BD00000FB4054B10B503A9044A0298C9
:102E700000F050F910BC5DF814FB00009D04000840
:102E800014000020490050EAC12018BF04204A0D58
:102E900018BF40F0010040F2FF72B2EB515F08BF73
:102EA00040F00200012808BF052070472DE9F041DD
:102EB0004F1E00EBC7010446D1E9000115461E462E
:102EC00037F006020DD02A463346FFF7CEFC7F1EB0
:102ED00004EBC703D3E90023FFF720FC37F0060219
:102EE000F1D1022F25D0042F13D0062F18BFBDE833
:102EF000F0812A463346FFF7B8FCD4E90A23FFF7EE
:102F00000DFC2A463346FFF7B0FCD4E90823FFF74F
:102F100005FC2A463346FFF7A8FCD4E90623FFF751
:102F2000FDFB2A463346FFF7A0FCD4E90423FFF754
:102F3000F5FB2A463346FFF798FCD4E90223FFF756
:102F4000EDFB2A463346FFF790FCD4E90023BDE8A9
:102F5000F041FFF7E3BB0122FFF76CBFFFF7DEBBD9
:102F6000024A00201107FFF765BF000001FDFFFFC7
:102F700002E008C8121F08C1002AFAD17047704742
:102F8000002001E001C1121F002AFBD170470000A0
:102F90002DE9FF5F82B00021DDE90430020DDDF88C
:102FA00040B0034318D044F61050A2F2FF3242431F
:102FB0001514119801281FD0A5EB0B00401C5FEAE7
:102FC000000A4FF000064E4FDFF83891B0465046E9
:102FD00015D5CAF1000413E0119801244AA3012871
:102FE00001D16FEA0B010298119AC0E90031C0E9E2
:102FF000024206B0BDE8F09FCBF10000DFE70446D7
:103000000021404A491842EB0450CDE9001012E07B
:10301000E00707D032463B4640464946FFF725FCCD
:103020008046894632463B4610461946FFF71DFC4E
:1030300006460F466410002CEAD1DDE90401DDE903
:103040000023BAF1000F06DAFFF70FFC42464B46A9
:10305000FFF70BFC05E0FFF77AFC42464B46FFF713
:1030600076FC04460E460022284BFFF7B9FE03D833
:103070004FF0FF30014607E00022254B2046314645
:10308000FFF74CFBFFF794FE102409E0002C0ADB4D
:103090000A220023FFF796FD039B30321A55641E67
:1030A00050EA0102F2D1641C039AC4F111031444E2
:1030B000119A012A03D0012208430DD10AE00843E6
:1030C00004D000204FF0110B119072E7A3EB0B0519
:1030D0006D1E0DE05B4504DD4FF0000205F10105BA
:1030E00004E003DA4FF00002A5F10105002AECD05C
:1030F00002981199C0E90231C0E9004579E7000062
:10310000000014400000F03F300000000000F043D9
:103110000000E03F2DE9FF4F95B09B4689460646EB
:1031200000250FE2252877D100242746F84A0121FF
:10313000059400E0044316F8013F203B01FA03F038
:103140001042F7D130782A2811D06FF02F03307851
:10315000A0F13002092A16D8059A44F0020402EBC5
:10316000820203EB42021044761C0590EFE759F807
:10317000042B0592002A03DA504244F400540590CF
:1031800044F00204761C30782E2816D116F8010F70
:1031900044F004042A280DD06FF02F023078A0F1FB
:1031A0003003092B09D807EB870302EB4303C71849
:1031B000761CF3E759F8047B761C30786C280FD026
:1031C00006DC4C2817D068280DD06A2814D104E0FA
:1031D000742810D07A280FD10DE044F400140AE0CE
:1031E00044F4801401E044F440147278824202D125
:1031F00004F58014761C761C307866280BD013DC1E
:10320000582877D009DC002875D04528F6D0462804
:10321000F4D047281AD19DE118E0632835D06428FE
:1032200079D0652812D195E1702873D008DC672821
:10323000F1D069286FD06E280DD06F2806D1B5E087
:1032400073282CD0752875D0782874D05A461799D1
:1032500090476D1C75E1C4F30250022809D0032881
:103260000DD0D9F8001004280DD00D6009F1040923
:1032700067E1D9F80010EA17C1E90052F6E7D9F87A
:1032800000100D80F2E70D70F0E719F8041B8DF8BF
:10329000001000208DF80100EA46012003E059F8F3
:1032A00004AB4FF0FF3061074FF0000102D40DE096
:1032B00008F101018846B9420FDA8045F8DB1AF8B7
:1032C00008100029F4D108E008F101018846814284
:1032D000FADB1AF808100029F6D105985B46A0EB36
:1032E000080721463846179A00F094FA284400EB64
:1032F000080507E04DE029E10DE01AF8010B5A46F8
:1033000017999047B8F10108F7D25B462146384635
:10331000179A13E142E00A220092C4F302524FF0DE
:10332000000A022A08D059F804CB032A4FEAEC71AC
:103330000AD00DE029E02AE009F1070121F0070297
:10334000F2E802C1914609E00FFA8CFC4FEAEC71F9
:10335000042A03D14FFA8CFC4FEAEC71002907DAFA
:103360000A460021DCF1000C61EB02012D2202E093
:10337000220504D52B228DF80420012203E0E20768
:1033800001D02022F7E7904659E00A2102E01022FE
:103390000DE010214FF0000A00910BE010224FF0D9
:1033A000000A44F004040827009203E008224FF0CA
:1033B000000A0092C4F30252022A05D059F804CB45
:1033C0000021032A08D009E009F1070121F00702D2
:1033D000F2E802C1914605E01FFA8CFC042A01D1F3
:1033E0000CF0FF0C4FF00008220728D5702806D0FB
:1033F000009B83F0100353EA0A0305D00EE040223D
:103400008DF80420012208E05CEA010206D0302297
:103410008DF804208DF8050002229046009B83F071
:10342000080353EA0A030AD15CEA010201D16207E8
:1034300005D530228DF804204FF001087F1E582852
:1034400004D034A003900EA802900DE036A0F9E756
:1034500053466046009AFFF7B5FB84460398825CAA
:103460000298401E029002705CEA0100F0D10298BE
:1034700006A9081A00F1200A600702D524F4803456
:1034800000E00127574502DDA7EB0A0000E000201D
:1034900000EB0A01009005984144401A0590E003B2
:1034A00006D45B462146179A059800F0B3F9054407
:1034B000002706E001A85A46C05D179990476D1C89
:1034C0007F1C4745F6DBE0030CD55B462146179A87
:1034D000059800F09FF9054404E030205A461799FA
:1034E00090476D1C0099481E00900029F5DC08E00B
:1034F000029802995A460078491C02911799904700
:103500006D1CBAF10001AAF1010AF1DC65E10000CD
:1035100009280100303132333435363738396162A9
:10352000636465660000000030313233343536376D
:1035300038394142434445460000000000F058F944
:103540000544761C307800287FF4ECAD19B028468D
:10355000BDE8F08F620700D4062709F1070222F0C8
:10356000070CFCE80223E14603F000485FEA080C80
:1035700002D00FF2702C0DE05FEA045C02D50FF26E
:10358000682C07E05FEAC47C02D00FF2602C01E0F7
:10359000AFF2700C4FF0FF3823F00043CDF850C06D
:1035A00065280CD006DC452809D046281DD04728C0
:1035B0003DD13DE0662818D067287ED138E0002153
:1035C000112F01DB112000E0781CCDE9000106A9D4
:1035D0000EA8FFF7DDFCDDE90F010E9A0391002133
:1035E000009207F1010A04914DE04FF0004000976E
:1035F000CDE9011006A90EA8FFF7CAFCDDE90F020C
:1036000003920E9B11990022DDF80CA00093049206
:1036100011B9791C00EB010AB7EB0A0004D4C0F120
:10362000FF3007F1010A0490AAEB0700019044E083
:10363000012F00DA01270021112F01DD112000E008
:103640003846CDE9000106A90EA8FFF7A1FCDDE987
:103650000F010E9A0391002104910092BA462107AE
:103660000CD40399514500DA8A46BAF1010F05DD01
:10367000009AAAF10101515C302908D0B84202DA5F
:1036800010F1040F06DA0121CDE9011015E0AAF1CD
:103690000101E9E7002805DC049901440491AAEB43
:1036A000000102E0411C514500DD8A460499401AA0
:1036B000401C01904FF000400290200704D4019874
:1036C000504501DBCDF8048000208DF84F000298B2
:1036D0000DF14F07B0F1004F25D02B200E9002982E
:1036E0004FF0020800280CDA404202902D200E9084
:1036F00007E00A210298FFF74FFA3031029007F8ED
:10370000011DB8F10001A8F10108F2DC02980028BF
:10371000EFD1791E0E980870307800F0200040F04C
:10372000450007F8020D12A8C01B00F10708149805
:10373000007800B1012000EB0A01019801EBE07173
:1037400005984144401A401E0590E00306D45B46AC
:103750002146179A059800F05DF805441498007802
:1037600018B15A46179990476D1CE00324D55B4663
:103770002146179A059800F04DF805441CE004987E
:10378000002807DBDDE90301884203DD0098405C87
:10379000179901E0179930205A469047049805F18F
:1037A0000105401C04900198401E019004D12E2078
:1037B0005A46179990476D1CBAF10001AAF1010A07
:1037C000DDDC05E017F8010B5A46179990476D1C90
:1037D000B8F10001A8F10108F4DC5B462146179A14
:1037E0000598ABE62D0000002B0000002000000033
:1037F0002DE9F041044600251E461746880404D4EE
:1038000005E039462020B0476D1C641EF9D52846D6
:10381000BDE8F0812DE9F041044600251E469046A2
:10382000C80301D5302700E02027880404D505E02F
:1038300041463846B0476D1C641EF9D52846BDE8A0
:10384000F08100002DE9F84F04460D4621F00040BC
:1038500000917349814211DC7249884201DC06D132
:103860002CB120462946BDE8F84FFFF774BB6E48DF
:10387000002DCCBF6D496E49BDE8F88F6D4981427E
:1038800011DD6D498142D8BF4FF0FF366DDD204616
:103890002946FFF7F7FA042808BFFFF761FB204627
:1038A0002946BDE8F88F6549654F25F000458142FE
:1038B00033DD6449814219DD002632464FF08043F2
:1038C00020462946FEF72AFF80468A4601222046E6
:1038D0002946FFF7AFFA00223B46FEF7C0FF4246FB
:1038E0005346FFF734F804460D463EE00126002219
:1038F000BA463B4620462946FEF710FF80460F4653
:103900000022534620462946FEF7A9FF42463B4681
:10391000FFF71DF804460D4627E04B4981421BDDA9
:10392000DFF828A102260022534620462946FEF74A
:103930009CFF00223B46FEF7F1FE80460F46002228
:10394000534620462946FEF78AFF42463B46FEF78D
:10395000FEFF04460D4608E0032622462B460020C3
:103960003B49FEF7F4FF04460D4622462B4610461F
:103970001946FEF77AFF8B46824602460B46FEF753
:1039800074FF07460246334888460B4606217844B2
:10399000FFF78CFA52465B46FEF767FF82462E48D9
:1039A0008B463A46434605217844FFF77FFA3A466C
:1039B0004346FEF75AFF02460B46002E5046594634
:1039C0000CDAFEF7ABFE22462B46FEF74EFF01B0A7
:1039D00022462B46BDE8F04FFEF744BFFEF79EFEA1
:1039E00022462B46FEF741FF1C4A7A4402EBC603EF
:1039F000D3E90023FEF733FF22462B46FEF72FFFC5
:103A0000174A7A4402EBC603D3E90023FEF72AFFE4
:103A1000009A002AB8BF81F00041BDE8F88F00008D
:103A2000000010440000F07F182D4454FB21F93FA2
:103A3000FB21F9BF0000DC3F0000203E0000F33F07
:103A40000000F03F0000E63F008003400000F83F28
:103A50000000F0BFBE0200007C0200001A0200005D
:103A6000E20100002DE9F04D9446CCF1000423F072
:103A700000464CEA0404524F46EAD4749A468846FB
:103A800021F00042BC4206D8454240EA050442EA21
:103A9000D474BC4204D9BDE8F04D6246FFF75EBA6B
:103AA000AAF14055A5F17F6555EA0C040BD002241C
:103AB00004EAAA74434DDFF810E144EAD87452EAEC
:103AC000000B04D00CE0BDE8F04DFFF7BBBE002CAE
:103AD00014BF012CBDE8F08D022C30D0032C32D065
:103AE00056EA0C0B0AD0BE4220D1BA4209D126F0C8
:103AF000804622F080423346114617E000291ADB47
:103B000025E0DFF8C8B0FB44002C04BFDBE900016E
:103B1000BDE8F08D012C02BFDBE9000181F000411E
:103B2000BDE8F08D022C0AD0032C0CD0BA4212D181
:103B3000B8F1000F0BDA23482549BDE8F08D28467F
:103B40002449BDE8F08D28467146BDE8F08D1D483A
:103B50002149BDE8F08D921B12153C2AC4BF1948BB
:103B60001D490EDCBAF1000FBEBF12F13C0F002060
:103B7000014606DB6246FEF7EAFE21F00041FFF750
:103B800061FE002C08BFBDE8F08D012C04BF81F060
:103B90000041BDE8F08D114A114B022C07D0FEF711
:103BA0005EFE2A46BDE8F04D0A4BFEF758BEFEF712
:103BB00056FE2A46BDE8F04D064BFEF753BE000008
:103BC0000000F07F182D4454FB2109C0760100004D
:103BD000FB21F9BFFB210940FB21F93F075C1433AE
:103BE00026A6A13C000000004FBB610567ACDD3F8D
:103BF000182D4454FB21E93F9BF681D20B73EF3F14
:103C0000182D4454FB21F93FE2652F227F2B7A3C8B
:103C1000075C143326A6813CBDCBF07A8807703C44
:103C2000075C143326A6913CC4EB98999999C9BFB7
:103C3000711623FEC671BCBF6D9A74AFF2B0B3BFEC
:103C40009AFDDE522DDEADBF2F6C6A2C44B4A2BFAC
:103C50000D5555555555D53FFF8300922449C23F18
:103C60006E204CC5CD45B73F513DD0A0660DB13F4C
:103C7000EB0D76244B7BA93F11DA22E33AAD903F5E
:103C80000000000000000000A83C00080000002028
:103C9000E8000000702F0008903D0008E8000020B8
:103CA00018040000802F000800A24A040000000051
:103CB00000000000010203040607080900000000DC
:103CC00000000000000000000000000000000000F4
:103CD00000000000000000000000000000000000E4
:103CE00000000000000000000000000000000000D4
:103CF00000000000000000000000000000000000C4
:103D000000000000000000000000000000000000B3
:103D100000000000000000000000000000000000A3
:103D20000000000000000000000000000000000093
:103D30000000000000000000000000000000000083
:103D40000000000000000000000000000000000073
:103D50000000000000000000000000000000000063
:103D60000000000000000000000000000000000053
:103D70000000000000000000000000000000000043
:103D800001020304010203040607080902040608ED
:0400000508000131BD
:00000001FF
