:020000040800F2
:100000006004002045010008D3070008D30300085E
:10001000CF070008B9010008990F00080000000090
:10002000000000000000000000000000350C000887
:10003000BD01000800000000C1080008090D00080B
:100040005F0100085F0100085F0100085F01000810
:100050005F0100085F0100085F010008BF010008A0
:100060005F0100085F0100085F0100085F010008F0
:100070005F0100085F0100085F0100085F010008E0
:100080005F0100085F0100085F0100085F010008D0
:100090005F0100085F0100085F0100085F010008C0
:1000A0005F0100085F0100085F0100085F010008B0
:1000B0005F0100085F0100085F0100085F010008A0
:1000C0005F0100085F0100085F0100085F01000890
:1000D0005F0100086D0D00085F0100085F01000866
:1000E0005F0100085F0100085F0100085F01000870
:1000F0005F0100085F0100085F0100085F01000860
:100100005F0100085F0100085F0100085F0100084F
:100110005F0100085F0100085F0100085F0100083F
:100120005F0100085F0100085F0100085F0100082F
:10013000DFF80CD000F02EF800480047BD1300088F
:10014000600400200648804706480047FEE7FEE7B7
:10015000FEE7FEE7FEE7FEE7FEE7FEE7FEE7FEE777
:100160000D0D00083101000830B50B460146002096
:100170002022012409E021FA02F59D4205D303FA69
:1001800002F5491B04FA02F52844151EA2F10102EA
:10019000F1DC30BD064C074D06E0E06840F001039D
:1001A00094E8070098471034AC42F6D3FFF7C4FF39
:1001B000601400088014000800BFFEE7704710B507
:1001C000022000F00BF810B1022000F001F810BD81
:1001D00001490860704700001404014001460020F6
:1001E0000022074B1B6803EA0102054B14331B680E
:1001F0000B4202D00AB1012000E00020704700004D
:10020000000401400549096821F01001034A11600A
:100210001146096801431160704700000020024048
:1002200001460020034A106800F0380008431060BF
:10023000704700000020024008B54FF40070ADF890
:10024000000003208DF8020018208DF80300694695
:10025000194800F035F84FF48060ADF80000042034
:100260008DF803006946144800F02AF80220ADF822
:10027000000004208DF8030069460F4800F020F8C4
:100280004FF48060ADF8000003208DF802001020CC
:100290008DF803006946094800F012F8C020ADF857
:1002A000000003208DF802001C208DF80300694631
:1002B000024800F005F808BD00080140000C0140AC
:1002C0002DE9F041024600250026002000230024ED
:1002D000002791F803C00CF00F0591F803C01CF043
:1002E000100F03D091F802C04CEA0505B1F800C028
:1002F0001CF0FF0F31D0146800202BE04FF0010CF0
:100300000CFA00F3B1F800C00CEA03069E4220D1BB
:1003100083004FF00F0C0CFA03F7BC4305FA03FC03
:100320004CEA040491F803C0BCF1280F06D14FF049
:10033000010C0CFA00FCC2F814C00AE091F803C0EA
:10034000BCF1480F05D14FF0010C0CFA00FCC2F8CB
:1003500010C0401C0828D1D31460B1F800C0BCF113
:10036000FF0F34DD546800202EE000F1080C4FF040
:10037000010808FA0CF3B1F800C00CEA03069E422B
:1003800021D183004FF00F0C0CFA03F7BC4305FAA0
:1003900003FC4CEA040491F803C0BCF1280F05D11A
:1003A00000F1080C08FA0CF8C2F8148091F803C0A8
:1003B000BCF1480F07D100F1080C4FF0010808FA12
:1003C0000CF8C2F81080401C0828CED35460BDE859
:1003D000F08100BFFEE721B1028842F48062028012
:1003E00004E002884FF6FF331A400280704770B570
:1003F00002460024002500230020958A138B1B044D
:1004000045EA030626F07F4404EA01068E4201D144
:10041000012000E0002070BD21B1028842F00102FD
:10042000028004E002884FF6FE731A400280704793
:100430001FB50020ADF804004BF6FF70ADF80600C4
:10044000C020ADF808004FF48060ADF80A0000014C
:10045000ADF80C00054800906946054800F038F8F2
:1004600001210348FFF7D8FF1FBD0000A08601004F
:100470000054004021B1028842F48072028004E0FE
:1004800002884FF6FF631A400280704721B102884C
:1004900042F40072028004E002884FF6FF531A40D3
:1004A0000280704730B503460020002400221A461F
:1004B0000C0F21F07F410CB1143201E0090C18320D
:1004C00015680D4201D0012000E0002030BD000081
:1004D0002DE9F04385B004460D460026B1460427B9
:1004E000DFF8CC80A6884FF6C0700640684600F062
:1004F0008FFADDF808802F48B8FBF0F01FFA80F97A
:1005000046EA0906A68020884FF6FE710840208042
:1005100000262949286888420CD828684000B8FB82
:10052000F0F087B2042F00DA04273E4309F10100FE
:10053000208427E0E888A0F53F41FF3906D12868EC
:1005400000EB4000B8FBF0F087B209E0286800EB50
:10055000C00101EB0010B8FBF0F087B247F4804710
:100560003805000D01D147F0010747F4004006436C
:100570004FF4967009FB00F04FF47A7190FBF1F0A4
:10058000401C2084A683208840F00100208026881B
:100590004FF6F5300640A88869890843064326804F
:1005A000A88929890843208105B0BDE8F0830000AF
:1005B00000127A0040420F00A08601000146088A1E
:1005C000C0B2704712B141F0010102E04FF6FE7374
:1005D000194001827047018270477FB505460E239E
:1005E0003B226946D02000F025F800240CE01DF8DD
:1005F00014006100491C1DF8011001EB002000B23D
:1006000025F81400601CC4B2032CF0DB04240DE0B8
:100610001DF814006100491C1DF8011001EB0020B9
:1006200001B2601E25F81010601CC4B2072CEFDB6D
:100630007FBD00002DE9F04106460D4617461C46D9
:1006400000BF4FF400313248FFF72CFF0028F8D1EB
:1006500001212F48FFF70EFF00BF2E492C48FFF75E
:10066000C6FE0028F9D0002231462948FFF7AAFF2C
:1006700000BF29492648FFF7BAFE0028F9D001211A
:100680002348FFF7C9FE39462148FFF7A4FF00BF02
:100690002149891C1E48FFF7AAFE0028F8D0012135
:1006A0001B48FFF7E7FE00BF1A491948FFF79FFEF6
:1006B0000028F9D0012231461548FFF783FF00BF1B
:1006C0001449491C1248FFF792FE0028F8D016E0A2
:1006D000012C07D100210E48FFF77DFE01210C48B7
:1006E000FFF7D4FE0B493F310948FFF780FE30B1D8
:1006F0000748FFF763FF28706D1C601E84B2002C52
:10070000E6D101210248FFF766FEBDE8F081000056
:1007100000540040010003008200070070B5044649
:100720000E46154601211948FFF7A4FE00BF1849DF
:100730001648FFF75CFE0028F9D000222146134836
:10074000FFF740FF00BF13491048FFF750FE002895
:10075000F9D029460D48FFF73EFF00BF0D49891C1F
:100760000A48FFF744FE0028F8D031460748FFF753
:1007700032FF00BF0749891C0448FFF738FE0028F4
:10078000F8D001210148FFF781FE70BD0054004000
:10079000010003008200070010B56B220021D02069
:1007A000FFF7BCFF19220721D020FFF7B7FF1A225D
:1007B0000621D020FFF7B2FF1C220121D020FFF735
:1007C000ADFF1B221821D020FFF7A8FF10BD00BFEE
:1007D000FEE7704708B500214FF0006000F066F8B2
:1007E0004FF4C06000F058F807208DF8000000209A
:1007F0008DF801008DF8020001208DF80300684695
:1008000000F010F825208DF8000000208DF8010080
:1008100001208DF802008DF80300684600F002F810
:1008200008BD000070B5002100230F22C4780CB36E
:10083000164C246804F4E064C4F5E064210AC1F1B4
:100840000403CA40447804FA03F184781440214335
:1008500009010F4C0678A155047804F01F05012406
:10086000AC4005786D114FF0E02606EB8505C5F824
:10087000004109E0047804F01F050124AC40054D57
:100880000678761145F8264070BD00000CED00E0BA
:1008900000E400E080E100E002490143024A116007
:1008A000704700000000FA050CED00E0024A0A4023
:1008B0000243024B1A60704780FFFF1F08ED00E003
:1008C0007047000029B1064AD2690243044BDA613D
:1008D00004E0034AD2698243014BDA6170470000A9
:1008E0000010024029B1064A92690243044B9A6102
:1008F00004E0034A92698243014B9A617047000009
:100900000010024010B500F05DF84FF4803000F0A8
:100910001BF900BF212000F0E5F80028FAD000F014
:1009200071F92749087008460078012826D110205F
:10093000FFF768FC0220FFF773FC002000F0F8F8D6
:10094000002000F033F94FF4806000F023F94FF4F9
:10095000E0114FF4803000F03BF9012000F032F953
:1009600000BF392000F0BEF80028FAD0022000F0C5
:100970003DF900BF00F0D4F80828FBD10121042084
:10098000FFF7B0FF01210820FFF7ACFF0121102085
:10099000FFF7A8FF01210846FFF794FF0121480552
:1009A000FFF790FF01218803FFF79CFF0121084614
:1009B000FFF798FF01210803FFF794FF10BD000027
:1009C000100000200F48006840F001000D49086049
:1009D000084640680C4908400A49486008460068D3
:1009E0000A490840074908600846006820F480204A
:1009F00008600846406820F4FE0048604FF41F007D
:100A000088607047001002400000FFF8FFFFF6FE0C
:100A100030B500210022002400232D4D6D6805F023
:100A20000C0121B1042905D0082923D105E0294D65
:100A3000056022E0274D05601FE0254D6D6805F437
:100A40007012234D6D6805F48034022505EB924247
:100A50001CB9214D554305600BE01D4D6D6815F423
:100A6000003F03D01C4D5543056002E0194D55432E
:100A7000056002E0174D056000BF00BF144D6D68B2
:100A800005F0F0010909154D6B5C0568DD40456016
:100A90000F4D6D6805F4E061090A104D6B5C456807
:100AA000DD4085600A4D6D6805F46051C90A0B4D43
:100AB0006B5C4568DD40C560054D6D6805F44041DF
:100AC000890B074D6B5CC568B5FBF3F5056130BD5F
:100AD0000010024000127A0000093D0016000020BC
:100AE0002600002010B501460022002300204A11F4
:100AF000012A02D1094C236806E0022A02D1074CE0
:100B0000236A01E0054C636A01F01F02012494404E
:100B10001C4201D0012000E0002010BD0010024066
:100B20000248406800F00C007047000000100240CE
:100B300001460020034A506820F0F000084350604E
:100B400070470000001002401149096821F480310B
:100B50000F4A11601146096821F480211160B0F537
:100B6000803F03D0B0F5802F0ED106E00849096818
:100B700041F48031064A116007E00549096841F4F3
:100B8000A021034A116000E000BF00BF70470000D1
:100B90000010024001460020034A506820F4E06043
:100BA00008435060704700000010024001460020DA
:100BB000034A506820F4605040EAC100506070471A
:100BC00000100240014908667047000000004242E0
:100BD00002460020044B586820F47C1042EA0103CE
:100BE0001843014B58607047001002400146002036
:100BF000034A506820F0030008435060704700002B
:100C00000010024070B500240025002600BF3120EE
:100C1000FFF768FF0646641CB4F5A06F01D0002EF4
:100C2000F5D03120FFF75EFF08B1012500E0002577
:100C3000284670BD704710B500F002F810BD0000E6
:100C4000002100202E4A126842F480322C4B1A6098
:100C500000BF2B4A126802F40030491C10B9B1F5EC
:100C6000A06FF6D1264A126812F4003F01D001208D
:100C700000E00020012842D1224A126842F010020E
:100C8000204B1A601A46126822F003021A601A46B4
:100C9000126842F002021A60194A5268184B5A60F0
:100CA0001A4652685A601A46526842F480625A6084
:100CB0001A46526822F47C125A601A46526842F46C
:100CC000E8125A601A46126842F080721A6000BF39
:100CD0000B4A126812F0007FFAD0094A526822F0DB
:100CE0000302074B5A601A46526842F002025A60E9
:100CF00000BF034A526802F00C02082AF9D170477B
:100D000000100240002002407047000010B5134858
:100D1000006840F001001149086008464068104929
:100D200008400E494860084600680E4908400B49D3
:100D300008600846006820F4802008600846406883
:100D400020F4FE0048604FF41F008860FFF773FF37
:100D50004FF000600449086010BD00000010024020
:100D60000000FFF8FFFFF6FE08ED00E010B540F2CE
:100D70002551054800F051F820B140F225510248B4
:100D800000F004F810BD00000038014010B500224A
:100D90000023A1F510646A3C00D100BF0A120124AF
:100DA0009440A3B2DC43048010BD21B1828942F497
:100DB0000052828104E082894DF6FF731A408281DD
:100DC0007047000010B54FF416400B490860002032
:100DD0008880C880088188810C204881074800F0FD
:100DE0006BF801210548FFF7E0FF012240F2255191
:100DF000024800F03CF810BD3000002000380140EF
:100E000002460020B1F5007F00D100BF13880B42DD
:100E100001D0012000E00020704770B50246002498
:100E2000002300250020A1F510666A3E00D100BF16
:100E3000C1F3421501F01F03012606FA03F3012D49
:100E400002D19689334006E0022D02D1168A334042
:100E500001E0968A33400C12012606FA04F4168843
:100E6000344013B10CB1012000E0002070BDF0B59A
:100E700003460024002600250020A1F510676A3FE4
:100E800000D100BF1846C1F3421401F01F0601272C
:100E900007FA06F5012C01D10C3004E0022C01D137
:100EA000103000E014301AB107682F43076002E0E9
:100EB0000768AF430760F0BD2DE9F04786B00546EF
:100EC0000E460024A24600BFA1460027B08900B10B
:100ED00000BF2F462C8A4CF6FF700440F088044374
:100EE0002C82AC894EF6F3100440B0883189084357
:100EF000718908430443AC81AC8A4FF6FF4004403B
:100F0000B0890443AC8201A8FFF782FD1F488742E5
:100F100002D1DDF810A001E0DDF80CA0A88910F4E2
:100F2000004F08D00AEBCA0000EB0A1031684900F4
:100F3000B0FBF1F807E00AEBCA0000EB0A103168D9
:100F40008900B0FBF1F86420B8FBF0F0040120093F
:100F5000642101FB1089A88910F4004F08D03220C9
:100F600000EBC900B0FBF1F000F00700044308E01B
:100F7000322000EB09106421B0FBF1F000F00F000B
:100F800004432C8106B0BDE8F08700000038014022
:100F9000C1F308028280704700BFFEE70FB4054B23
:100FA00010B503A9044A029800F018F810BC5DF8C7
:100FB00014FB0000991300082C00002002E008C870
:100FC000121F08C1002AFAD170477047002001E0C3
:100FD00001C1121F002AFBD1704700002DE9FF4F0D
:100FE0008BB005468846002667E125287AD1002483
:100FF0006D1CB64AA146A24601212B78203B01FA7E
:1010000003F0104202D004436D1CF6E728782A282A
:1010100010D06FF02F022878A0F13001092915D8DF
:1010200009EB890102EB410144F0020400EB0109E4
:101030006D1CF0E758F8049BB9F1000F03DA44F493
:101040000054C9F1000944F002046D1C28782E28D0
:1010500017D115F8010F44F004042A280ED06FF0C0
:101060002F022878A0F1300109290AD80AEB8A0159
:1010700002EB410100EB010A6D1CF2E758F804ABEA
:101080006D1C28786C280FD006DC4C2817D06828F7
:101090000DD06A2814D104E0742810D07A280FD11A
:1010A0000DE044F400140AE044F4801401E044F438
:1010B00040146978814202D16D1C04F580146D1CC6
:1010C0002878692866D007DC002876D0632828D0E5
:1010D000642807D15EE005E06E2808D073282AD086
:1010E00075287AD0DDE90D129047761CE4E0C4F350
:1010F0000250022809D003280DD0D8F80010042887
:101100000DD00E6008F10408D6E0D8F80010F217F0
:10111000C1E90062F6E7D8F800100E80F2E70E7021
:10112000F0E758F8041B8DF8001000208DF801003E
:10113000EB46012003E058F804BB4FF0FF30610795
:101140004FF0000701D40AE07F1C57450DDA8742B3
:10115000FADB1BF807100029F6D106E07F1C874256
:10116000FCDB1BF807100029F8D1DDE90D23A9EB02
:1011700007008146214600F0BEF83044C61904E05D
:10118000DDE90D121BF8010B90477F1EF8D22146B6
:1011900048468CE058F8040BC4F302514FF00A0B98
:1011A000032900D100B2042900D140B2002806DA98
:1011B000C0F100004FF02D0104E082E00DE02105B8
:1011C00004D52B218DF82810012103E0E10710D070
:1011D0002021F7E708AF089114E058F8040BC4F396
:1011E00002514FF00A0B032900D180B2042900D12B
:1011F000C0B20021EEE75946FEF7B6FF01F130011B
:1012000007F8011D0028F6D1ADEB070000F1200B17
:10121000600702D524F4803401E04FF0010ADA457A
:1012200002DDAAEB0B0000E00020824600EB0B0180
:1012300008980144A9EB01000990E00306D4DDE918
:101240000D232146099800F056F80644002008E0D6
:101250000AA8DDE90D1210F809009047761C09F183
:101260000100089981468842F2DBE0030CD5DDE9F4
:101270000D232146099800F03EF8064404E0DDE91C
:101280000D1230209047761CBAF10001AAF1010A34
:10129000F5DC05E0DDE90D1217F8010B9047761C2F
:1012A000BBF10001ABF1010BF4DC09982146DDE94B
:1012B0000D2300F00DF806446D1C287800287FF4FB
:1012C00094AE0FB03046BDE8F08F00000928010051
:1012D0002DE9F0410446002517461E46880405D432
:1012E00006E039462020B04705F10105641EF8D517
:1012F0002846BDE8F0812DE9F041044600259046DE
:101300001E46C80301D5302700E02027880405D5F4
:1013100006E041463846B04705F10105641EF8D5A0
:101320002846BDE8F08100004FF0E021096921F076
:1013300004014FF0E0221161C21700EB5272D2108B
:10134000044B1A70194609784FF47A725143024AD5
:1013500011807047120000201400002001460D4A41
:1013600012884A434FF0E0235A6100229A61012219
:101370001A6100BF4FF0E022106910F0010F02D097
:1013800010F4803FF6D000224FF0E0231A619A61FA
:10139000704700001400002070B504460D46E1B20D
:1013A0000548FFF7F5FD00BF80210348FFF728FD42
:1013B0000028F9D0204670BD0038014088B000BF39
:1013C0000020049005900690079003904820FFF7B6
:1013D000ABFFFFF7FFF9FFF795FAFEF72DFFFFF7D9
:1013E000F1FCFFF725F8FFF7D7F90123752203A9D0
:1013F000D020FFF71FF99DF80C100EA0FFF7CEFDCF
:1014000017E004A8FFF7E9F8BDF91A00BDF91810B4
:10141000BDF91620CDE900210290BDF91430BDF9C7
:101420001220BDF9101007A0FFF7B8FD3220FFF71A
:1014300095FFE6E7242424242424242424202020A7
:101440002564000025313064253130642531306455
:101450002531306425313064253130640D0A0000B7
:10146000801400080000002030000000BC0F0008BD
:10147000B01400083000002030040000CC0F000839
:10148000000000000000000000000000000000005C
:10149000000000000000000000000102030401023F
:1014A0000304060708090204060800000000000003
:0400000508000145A9
:00000001FF
