:020000040800F2
:1000000010070020CD010008790300087B030008D9
:100010007F03000883030008870300080000000036
:100020000000000000000000000000008B0300083A
:100030008D030008000000008F03000891030008F2
:10004000E7010008E7010008E7010008E7010008F0
:10005000E7010008E7010008E7010008E7010008E0
:10006000E7010008E7010008E7010008E7010008D0
:10007000E7010008E7010008E7010008E7010008C0
:10008000E7010008E7010008E7010008E7010008B0
:10009000E7010008E7010008E7010008E7010008A0
:1000A000E7010008E7010008E7010008E701000890
:1000B000E7010008E7010008E7010008E701000880
:1000C000E7010008E7010008E7010008E701000870
:1000D000E7010008E7010008E7010008E701000860
:1000E000E7010008E7010008E7010008E701000850
:1000F000E7010008E7010008E7010008E701000840
:10010000E7010008E7010008E7010008E70100082F
:10011000E7010008E7010008E7010008E70100081F
:10012000E7010008E7010008E7010008E70100080F
:1001300000F002F800F03AF80AA090E8000C8244BF
:100140008344AAF10107DA4501D100F02FF8AFF29C
:10015000090EBAE80F0013F0010F18BFFB1A43F0A5
:10016000010318474C3700006C370000103A24BFD9
:1001700078C878C1FAD8520724BF30C830C144BF0C
:1001800004680C607047000000230024002500264E
:10019000103A28BF78C1FBD8520728BF30C148BFEA
:1001A0000B6070471FB51FBD10B510BD01F054FEA8
:1001B0001146FFF7F7FF00F030F801F072FE03B4CC
:1001C000FFF7F2FF03BC01F075FE0000094880470D
:1001D00009480047FEE7FEE7FEE7FEE7FEE7FEE729
:1001E000FEE7FEE7FEE7FEE704480549054A064B41
:1001F000704700002B1D000831010008100100208D
:1002000010070020100300201003002000BF011E73
:10021000A0F1010290B2FAD1704700F091FE00F017
:10022000CCF800F0CFFD00F0B2FD00F099FD67E0E2
:1002300034A1394800F0FEFE3B2000F0DEFD04460C
:10024000224636A1344800F0F5FE36A1324800F0CF
:10025000F1FE432000F0D1FD044622462FA12E4896
:1002600000F0E8FE00F0DAFD48B133A12A4800F0C2
:10027000E1FE344829A10268274800F0DBFE00F0C7
:100280003DFE00F08CFC30A1234800F0D3FE314845
:1002900022A10268204800F0CDFE2E4800686421AB
:1002A00090FBF1F422462CA11B4800F0C3FE2E4A1D
:1002B0002EA1194800F0BEFE4EF66020FFF7A6FF03
:1002C0004EF66020FFF7A2FF4EF66020FFF79EFF7C
:1002D0004EF66020FFF79AFF4EF66020FFF796FF7C
:1002E0004EF66020FFF792FF4EF66020FFF78EFF7C
:1002F0004EF66020FFF78AFF4EF66020FFF786FF7C
:1003000096E700000D0A20414343454C5F584F5586
:10031000545F483A20000000003801402025642046
:100320000D0A00000D0A204759524F5F584F55548F
:100330005F483A20000000000D0A204D61675F7899
:100340003A200000000000200D0A2054454D503A8C
:1003500020000000500000200D0A205072657373C9
:100360007572653A200000000C0000200D0A20255F
:1003700073200D0A00000000704700BFFEE700BFB9
:10038000FEE700BFFEE700BFFEE77047704770471B
:100390007047000008B50121102001F0EFF9282076
:1003A000ADF8000001208DF8020014208DF8030044
:1003B0006946F94800F026FF08BD10B5FFF7EAFFCF
:1003C00010BD10B50522002100BF06E000BF131EBE
:1003D000A2F10102FBD10522491C8142F6D310BDD6
:1003E00010B541F28832002100BF07E000BF131EA4
:1003F000A2F10102FBD141F28832491C8142F5D3BE
:1004000010BD00B52020E4490861082008610120E2
:10041000FFF7D7FFE048806808B9012000E000201E
:1004200000F0200000B100BD2020DB494861012020
:10043000FFF7C7FFD848806800F0200000B1F2E75E
:100440002020D54948610120FFF7BBFF0820D24991
:10045000486100BFE7E700B52020CF494861082088
:1004600048610120FFF7ADFF0820CB49086120203B
:1004700008610120FFF7A5FF00BD10B50446012C5F
:1004800003D12020C449086102E02020C24948610C
:100490000820C14908610120FFF793FF0820BE49E9
:1004A00048610120FFF78DFF10BD10B52020BA492B
:1004B00008610120FFF785FF0820B7490861012086
:1004C000FFF77FFF05E0641C41F28830844200D1D1
:1004D00005E0B148806800F020000028F3D100BF9B
:1004E000AD48806800F0200038B10820AA49486172
:1004F0000120FFF766FF002010BD0820A6494861D3
:100500000120FFF75EFF0120F6E770B504460126E3
:100510000820A1494861002518E004F0800018B1C6
:1005200020209D49086102E020209B494861082065
:10053000994908610120FFF744FF08209649486166
:100540000120FFF73EFF6006040E6D1C082DE4D36A
:1005500070BD30B5002420208F490861002516E0C9
:100560006006040E08208C4908610120FFF729FF6E
:100570008948806800F0200008B144F00104082098
:10058000854948610120FFF71CFF681CC5B2082D92
:10059000E6DB204630BD70B506460C461546FFF733
:1005A00030FF3046FFF7B1FFFFF77FFF18B9FFF7C5
:1005B00052FF002070BD2046FFF7A7FFFFF775FF31
:1005C00018B9FFF748FF0020F4E72846FFF79DFF22
:1005D000FFF76BFF18B9FFF73EFF0020EAE7FFF7D0
:1005E0003AFF00BFE6E770B504460D46FFF709FF86
:1005F0002046FFF78AFFFFF758FF18B9FFF72BFFD8
:10060000002070BD2846FFF780FFFFF74EFF18B9A6
:10061000FFF721FF0020F4E7FFF7F3FE611CC8B2EB
:10062000FFF773FFFFF741FF18B9FFF714FF002032
:10063000E7E7FFF78EFF06460120FFF71EFFFFF7F3
:100640000AFF3046DDE700B508205349486106201F
:10065000FFF7B7FE0820504908610620FFF7B1FEFA
:1006600008204D4948610620FFF7ABFE08204A49A3
:1006700008610620FFF7A5FE0820474948610620CB
:10068000FFF79FFE082044490861FFF7BAFEEE20FD
:10069000FFF73BFFFFF709FF18B9FFF7DCFE00206B
:1006A00000BD1E20FFF731FF0820FFF799FEFFF77E
:1006B000FCFE18B9FFF7CFFE0020F1E7FFF7CBFEF5
:1006C0000120EDE770B5002439E0FFF79AFEEE2037
:1006D000FFF71BFFFFF7E9FE18B9FFF7BCFE00208C
:1006E00070BDA02101EB4401C8B2FFF70EFFFFF778
:1006F000DCFE18B9FFF7AFFE0020F1E7FFF781FE3F
:10070000EF20FFF702FFFFF7D0FE18B9FFF7A3FEB7
:100710000020E5E7FFF71DFF05460020FFF7ADFECF
:10072000FFF717FF06460120FFF7A7FEFFF793FE2E
:1007300046EA0520194921F81400601CC4B2082CAF
:10074000C3DB0120CCE73EB5044600250020009025
:100750000190029000BF009001900290FFF751FEBF
:10076000EE20FFF7D2FEFFF7A0FE18B9FFF773FEE9
:1007700000203EBD2046FFF7C8FEFFF796FE18B9E1
:10078000FFF769FE0020F4E7FFF765FE04F00F00B5
:10079000092821D204E00000001001409C00002044
:1007A000DFE800F0051A0A1A0E1A121A16004FF4A2
:1007B0006170FFF706FE0FE00620FFF711FE0BE069
:1007C0000820FFF70DFE07E00C20FFF709FE03E00D
:1007D0001420FFF705FE00BF00BFFFF712FEEE205A
:1007E000FFF793FEFFF761FE18B9FFF734FE002014
:1007F000BFE70020FFF789FEFFF757FE18B9FFF7A4
:100800002AFE0020B5E7FFF7FCFDEF20FFF77DFE95
:10081000FFF74BFE18B9FFF71EFE0020A9E7FFF710
:1008200098FE00900020FFF728FEFFF792FE01904F
:100830000020FFF722FEFFF78CFE02900120FFF759
:100840001CFEFFF708FE00980104019801EB002050
:100850000299451828468CE72DE9F14F84B0049899
:10086000FFF771FFFE4908600022FE4B1046590257
:1008700001F0B0FBCDE90001FB49488902F095FB8E
:100880008246DDE9002302F0DFFB06460F46F4480E
:10089000006802F08AFB804632463B4602F0FAFDD1
:1008A000044602F0E1FEF14A03C20022F04B10467A
:1008B0004FF0804101F08EFB80468946EA488089EE
:1008C0004FF0000AE949D1E900CBA0FB0C2E0AFB4E
:1008D0000CEC00FB0BC1104602F016FB064642462C
:1008E0004B4602F045F9044602F09AFA02900022C3
:1008F000DF4B10464FF0804101F06CFBCDE9000169
:10090000D9488089D949D1E900CBA0FB0C2E0AFB3C
:100910000CEC00FB0BC1104602F0F6FA0646DDE9CE
:10092000002302F025F904460022D24B02F064F8BD
:10093000804602F075FAD049086005B0BDE8F08F36
:100940002DE9F14F88B00898FFF7FDFECB4908600C
:100950000846006818B9002009B0BDE8F08F0022F1
:10096000C74B10464FF0804101F034FB04460D4662
:10097000BD4800894FF0000ADFF8F0C2DCE9001B37
:10098000A0FB012E0AFB01E100FB0B11104602F057
:10099000BBFA064622462B4602F0EAF88046894614
:1009A0000022B84B10464FF0804101F013FB044683
:1009B0000D46AD49888802F0F8FA064622462B46D5
:1009C00002F042FB42464B46CDE9040102F014F826
:1009D000CDE9060102F048FEAB4A03C20022A14B5A
:1009E0001046590201F0F6FA04460D469E48C088AA
:1009F000DFF878C2DCE9001BA0FB012E0AFB01E155
:100A000000FB0B11104602F07FFA064622462B46E9
:100A100002F0AEF800229D4BCDE9040110464FF0E4
:100A2000804101F0D7FA04460D468F49488802F00C
:100A3000BCFA064622462B4602F006FB8046DDE95C
:100A4000042301F0D9FFCDE9060102F00DFE904A22
:100A500003C289480068B0F5FA6F5EDA00228D4B58
:100A600010464FF0804101F0B5FA06460F467F4828
:100A7000D0E90010A1FB012A00FB01AA01FB00A1A3
:100A8000104602F041FA804632463B4602F070F8CA
:100A9000044602F0C5F98049086077480068A0F56F
:100AA000FA6040437D4908600846006802F07DFA1C
:100AB000064600227A4B02F0C7FA044602F0E0F93B
:100AC000784908607548006802F06FFA064600220F
:100AD000754B02F0B9FA044602F0D2F97349086086
:100AE000654800686C490968401A634908606648AF
:100AF000D0E900306B490968591A60F10000624A78
:100B0000C2E900106248D0E9003068490968591A02
:100B100060F100005E4AC2E9001000225B4B104603
:100B20004FF0804101F056FA80468946564903C984
:100B300002F0EAF904460D4600225D4B1046990387
:100B400001F048FA06460F464C4800684FF0000A8C
:100B5000DFF83CC1DCE9001BA0FB012E0AFB01E130
:100B600000FB0B11104602F0CFF932463B46CDE9AF
:100B7000000101F0FDFF22462B46CDE9020102F003
:100B800089FC42464B46CDE9040101F0F1FFCDE975
:100B9000060102F045F9474908600120DCE64548B6
:100BA00000684549086008460068002807DA0846DA
:100BB0000068404208602D204049087002E0202073
:100BC0003E4908703C4800683D4990FBF1F03030E8
:100BD0003A49487038480068394990FBF1F201FB06
:100BE0001200354908600846006842F2107190FB17
:100BF000F1F03030314988702F48006842F21071AE
:100C000090FBF1F201FB12002B49086008460068D6
:100C10004FF47A7190FBF1F030302849C8702648C3
:100C200000684FF47A7190FBF1F201FB1200224947
:100C3000086008460068642190FBF1F030301F49DD
:100C400008711D480068642190FBF1F201FB12005D
:100C5000194908602E20194948711748006831E089
:100C600034000020000020409C00002048000020AC
:100C70000000374000409F4050000020300000201E
:100C800000001C40000030405800002000002E40B2
:100C90006000002000003F406C0000203800002071
:100CA000000004403C0000200000F43F4000002011
:100CB0000000354068000020700000200C0000207B
:100CC000A08601000A2190FBF1F030308F49887135
:100CD0008F4800680A2190FBF1F201FB12008C4959
:100CE00008600846007830308849C871704770B590
:100CF00002460021D589D08900F47F40D0810023AD
:100D000026E0184603EBD0767610A3EB4606012EBC
:100D100004D1581012F81000414004E0581032F885
:100D2000100081EA202108240EE001F4004028B1DF
:100D30004FF4405080EA410081B203E04FF6FF706B
:100D400000EA4101601EC4B2002CEEDC581C03B264
:100D5000102BD6DB0F2000EA2131D581084670BD6B
:100D600070B50025FFF76FFC80B1FFF7ABFC18B141
:100D70006848FFF7BCFF04466648807B00F00F0020
:100D8000A04203D164A16A4800F054F970BD00B5D7
:100D900000226A21D020FFF7FEFB02223721D0205B
:100DA000FFF7F9FB782200213C20FFF7F4FB00223B
:100DB00001213C20FFF7EFFB002202213C20FFF73E
:100DC000EAFB00BD00B500226B21D020FFF7E3FB5A
:100DD00007221921D020FFF7DEFB06221A21D0209E
:100DE000FFF7D9FB18221B21D020FFF7D4FB0122EB
:100DF0001C21D020FFF7CFFB00BD70B50446214673
:100E0000D020FFF7F0FB0546601CC1B2D020FFF7F1
:100E1000EAFB064646EA052000B270BD0CB500208C
:100E20000090019009213C20FFF7DDFB00F001005C
:100E3000002861D003213C20FFF7D5FB8DF800008E
:100E400004213C20FFF7CFFB8DF8010005213C2059
:100E5000FFF7C9FB8DF8020006213C20FFF7C3FB1A
:100E60008DF8030007213C20FFF7BDFB8DF804003F
:100E700008213C20FFF7B7FB8DF805009DF8010025
:100E80009DF8001040EA01202A4908609DF80300FF
:100E90009DF8021040EA0120274908609DF80500EE
:100EA0009DF8041040EA01202449086021480068A8
:100EB000B0F5004F06DB1F480068A0F57F40FF3803
:100EC0001C4908601C480068B0F5004F06DB1A4852
:100ED0000068A0F57F40FF38174908601748006890
:100EE000B0F5004F06DB15480068A0F57F40FF38DD
:100EF0001249086001200CBD0020FCE710B5582005
:100F0000FFF7AAFC4820FFF71BFD10BD0C000020D6
:100F1000700000209C0000200D0A20496E69745F5B
:100F20004D5335363131303142412D4F4B0D0A0092
:100F300000380140000000200400002008000020CC
:100F400000B585B0012144F2040000F017FC4FF415
:100F50000070ADF8100018208DF8130003208DF8F4
:100F6000120004A9754800F04DF94FF48060ADF807
:100F7000100004208DF8130004A9704800F042F915
:100F80004FF4165000900020ADF80400ADF80600B4
:100F9000ADF80800ADF80C000C20ADF80A00694669
:100FA000674800F092FC0121654800F01AFD05B089
:100FB00000BD70B504460D46E1B2614800F07EFD0B
:100FC00000BF40215E4800F0E7FD0128F9D120462E
:100FD00070BDF0B503460D461646002729460A2E79
:100FE00003D0002008702846F0BD33B9302001F846
:100FF000010B002008702846F6E7002B03DA2D20AD
:1010000001F8010B5B4242F210720DE093FBF2F427
:1010100004B937B104F1300001F8010B04FB1233BD
:1010200001270A2092FBF0F2002AEFDC0020087072
:101030002846D9E70FB470B586B006460CA80190D3
:1010400073E00B9800785C281CD10B98401C0B9027
:1010500000786E2809D072280FD10D21304600F09B
:101060002DFD0B98401C0B900BE00A21304600F040
:1010700025FD0B98401C0B9003E00B98401C0B9037
:1010800000BF4BE00B980078252840D10B98401CFE
:101090000B900078642818D0732833D1019810C8B9
:1010A00001900BE02178304600F008FD00BF4021A0
:1010B000304600F071FD0028F9D0641C207800282B
:1010C000F0D10B98401C0B9020E0019820C80190B3
:1010D0000A2202A92846FFF77CFF02AC0BE0217828
:1010E000304600F0EBFC00BF4021304600F054FDDC
:1010F0000028F9D0641C20780028F0D10B98401CFF
:101100000B9003E00B98401C0B9000BF06E00B987F
:1011100010F8011B0B90304600F0D0FC00BF4021BE
:10112000304600F039FD0028F9D00B9800780028EF
:1011300087D106B070BC5DF814FB000000080140C8
:101140000038014010B50446CC48844208D1012142
:10115000042000F02DFB0021042000F029FB46E0D4
:10116000C748844208D10121082000F021FB00215A
:10117000082000F01DFB3AE0C248844208D101215A
:10118000102000F015FB0021102000F011FB2EE0D4
:10119000BD48844208D10121202000F009FB002134
:1011A000202000F005FB22E0B848844208D101214C
:1011B000402000F0FDFA0021402000F0F9FA16E08E
:1011C000B348844208D10121802000F0F1FA0021C7
:1011D000802000F0EDFA0AE0AE48844207D10121F8
:1011E000801500F0E5FA0021A01500F0E1FA10BD2D
:1011F00010B50121084600F0DBFA0021012000F0C3
:10120000D7FA10BD2DE9F041024600250026002046
:1012100000230024002791F803C00CF00F0591F87B
:1012200003C00CF0100CBCF1000F03D091F802C009
:101230004CEA050591F800C0BCF1000F31D01468EC
:1012400000202BE04FF0010C0CFA00F3B1F800C0C5
:101250000CEA03069E4220D183004FF00F0C0CFADB
:1012600003F7BC4305FA03FC4CEA040491F803C0FD
:10127000BCF1280F06D14FF0010C0CFA00FCC2F8AB
:1012800014C00AE091F803C0BCF1480F05D14FF03B
:10129000010C0CFA00FCC2F810C0401C0828D1D385
:1012A0001460B1F800C0BCF1FF0F34DD54680020B9
:1012B0002EE000F1080C4FF0010808FA0CF3B1F829
:1012C00000C00CEA03069E4221D183004FF00F0CB0
:1012D0000CFA03F7BC4305FA03FC4CEA040491F84A
:1012E00003C0BCF1280F05D100F1080C08FA0CF876
:1012F000C2F8148091F803C0BCF1480F07D100F187
:10130000080C4FF0010808FA0CF8C2F81080401CD5
:101310000828CED35460BDE8F0814FF6FF710180FC
:10132000022181700421C170704702460020936839
:101330000B400BB1012000E0002070470146886897
:1013400080B2704702460020D3680B400BB10120E9
:1013500000E0002070470146C86880B27047016114
:101360007047416170470AB1016100E04161704717
:10137000C16070474FF480320A43826181618261AB
:1013800082698269704702460020434B18684FF615
:101390008073184040EA021008433F4B18607047C2
:1013A0003E49C8617047F0B50A4600230024002179
:1013B000002500F00046B6F1004F02D1364EF1692B
:1013C00001E0354E7168C0F3034583B200F4401666
:1013D000B6F5401F08D121F070612F4E766826F0D7
:1013E00070662D4F7E6012E000F48016B6F5801F07
:1013F00006D1032606FA05F4A14341F0706106E028
:10140000460D360103FA06F6B14341F0706122B190
:10141000460D360103FA06F6314300F00046B6F1F8
:10142000004F02D11C4EF16101E01B4E7160F0BD16
:1014300030B500228B071C0F0F2303FA04F2164B62
:1014400008338C1053F824309343134C08348D1018
:1014500044F8253023468C1053F824308C07240F91
:1014600000FA04F423430C4C08348D1044F8253062
:1014700030BD0A49DC3108607047000000080140B7
:10148000000C014000100140001401400018014010
:10149000001C0140002001400000014000002042EB
:1014A000DF48006840F00100DD49086008464068F8
:1014B000DC490840DA49486008460068DA490840D3
:1014C000D74908600846006820F480200860084674
:1014D000406820F4FE0048604FF41F0088607047A9
:1014E000CF49096821F48031CD4A1160114609685D
:1014F00021F480211160B0F5803F03D0B0F5802F3A
:101500000ED106E0C649096841F48031C44A116031
:1015100007E0C349096841F4A021C14A116000E015
:1015200000BF00BF704710B5014600220023002015
:101530004A11012A02D1BA4C236806E0022A02D1DC
:10154000B74C236A01E0B64C636A01F01F02012424
:1015500094401C400CB1012000E0002010BD38B5C3
:10156000002000900024002500BF3120FFF7DBFFA2
:1015700005460098401C00900098B0F5A06F01D07F
:10158000002DF2D03120FFF7CEFF08B1012400E09A
:101590000024204638BD01460020A14A106820F0F2
:1015A000F80040EAC10010607047A0490860704729
:1015B000024600209A4B586820F47C1042EA01034E
:1015C0001843974B58607047984908667047014622
:1015D0000020934A506820F0030008435060704791
:1015E0008F48406800F00C007047014600208C4A8C
:1015F000506820F0F000084350607047014600201A
:10160000874A506820F4E060084350607047014604
:101610000020834A506820F4605040EAC1005060C6
:10162000704729B17E4A527A02437D4B5A7204E0D8
:101630007B4A527A82437A4B5A7270477B49D8313F
:101640000860704701460020754A506820F4404009
:101650000843506070470021714A20321170704A6F
:1016600082F82010012802D004280AD104E00121C8
:101670006B4A2032117005E00521694A2032117051
:1016800000E000BF00BF70476949086070476449C7
:10169000096A0143624A116270476549443908602A
:1016A000704730B500210022002400235C4D6D6896
:1016B00005F00C0121B1042905D0082923D105E04A
:1016C0005C4D056022E05B4D05601FE0544D6D6888
:1016D00005F47012524D6D6805F48034022505EB57
:1016E00092421CB9544D554305600BE04C4D6D685A
:1016F00005F400351DB1504D5543056002E04D4DD8
:101700005543056002E04B4D056000BF00BF444DEE
:101710006D6805F0F0010909484D6B5C0568DD4016
:1017200045603F4D6D6805F4E061090A434D6B5C0F
:101730004568DD4085603A4D6D6805F46051C90A21
:101740003E4D6B5C4568DD40C560354D6D6805F408
:101750004041890B3A4D6B5CC568B5FBF3F50561FB
:1017600030BD29B12E4A526902432D4B5A6104E023
:101770002B4A526982432A4B5A61704729B1284A41
:1017800092690243264B9A6104E0254A926982439A
:10179000234B9A61704729B1214AD2690243204BF9
:1017A000DA6104E01E4AD26982431D4BDA61704758
:1017B00029B11B4AD2680243194BDA6004E0184A87
:1017C000D2688243164BDA60704729B1144A126915
:1017D0000243134B1A6104E0114A12698243104B11
:1017E0001A61704712494039086070470F49C86450
:1017F00070470B49C87170470948406A40F08070D3
:1018000007494862704701460020054A92680A402D
:101810000AB1012000E0002070470149887270473A
:10182000001002400000FFF8FFFFF6FE00004242F9
:101830008004424200127A0000093D00740000203A
:101840008400002010B50446FB48844209D10121E0
:101850008803FFF7ADFF00214FF48040FFF7A8FF9A
:1018600032E0F648844209D101214804FFF7ADFF78
:1018700000214FF40030FFF7A8FF25E0F048844234
:1018800009D101218804FFF7A0FF00214FF4802037
:10189000FFF79BFF18E0EB48844209D10121C804FF
:1018A000FFF793FF00214FF40020FFF78EFF0BE0BE
:1018B000E548844208D101210805FFF786FF002191
:1018C0004FF48010FFF781FF10BD2DE9F04786B07F
:1018D00005460E460024A24600BFA1460027B08957
:1018E00000B100BF2F462C8A4CF6FF700440F088F0
:1018F00004432C82AC894EF6F3100440B088318941
:101900000843718908430443AC81AC8A4FF6FF4019
:101910000440B0890443AC8201A8FFF7C2FEC64868
:10192000874202D1DDF810A001E0DDF80CA0A88903
:1019300000F4004040B10AEBCA0000EB0A10316825
:101940004900B0FBF1F807E00AEBCA0000EB0A100F
:1019500031688900B0FBF1F86420B8FBF0F00401B5
:101960002009642101FB1089A88900F4004040B1DE
:10197000322000EBC900B0FBF1F000F00700044397
:1019800008E0322000EB09106421B0FBF1F000F018
:101990000F0004432C8106B0BDE8F0874FF41651C8
:1019A000016000218180C18001810C2141810021E1
:1019B0008181704710B502460020108A4FF2FF0364
:1019C00018400B884C8823438C882343CC882343BE
:1019D0001843108210BD0021018041808180C180A8
:1019E000704721B1828942F40052828104E08289E9
:1019F0004DF6FF731A4082817047F0B5034600240C
:101A000000260025002040F66A17B94200D100BF29
:101A10001846C1F3421401F01F06012707FA06F524
:101A2000012C01D10C3004E0022C01D1103000E077
:101A300014301AB107682F43076002E00768AF430C
:101A40000760F0BD1AB1838A0B43838202E0838A68
:101A50008B4383827047028A4FF6F0731A400282EA
:101A6000028A0A430282704782894FF2FF731A404A
:101A7000828182890A438281704721B1828942F042
:101A80000202828104E082894FF6FD731A4082814E
:101A90007047028A4FF6DF731A400282028A0A43B5
:101AA0000282704721B1028A42F48042028204E03D
:101AB000028A4BF6FF731A4002827047C1F3080294
:101AC0008280704701468888C0F30800704781898A
:101AD00041F0010181817047028BD2B20283028BF7
:101AE00042EA012202837047028B02F47F420283A2
:101AF000028B0A430283704721B1828A42F020029E
:101B0000828204E0828A4FF6DF731A408282704735
:101B100021B1828A42F01002828204E0828A4FF66A
:101B2000EF731A408282704721B1828A42F0080224
:101B3000828204E0828A4FF6F7731A4082827047ED
:101B400021B1828942F40042828103E08289C2F39A
:101B50000E028281704721B1828A42F40062828241
:101B600004E0828A4FF2FF731A4082827047828AB1
:101B70004FF6FB731A408282828A0A438282704740
:101B800021B1828A42F00202828204E0828A4FF608
:101B9000FD731A408282704702460020B1F5007F33
:101BA00000D100BF13880B400BB1012000E00020E2
:101BB000704701F40072B2F5007F00D100BFCA4344
:101BC0000280704770B502460024002300250020E3
:101BD00040F66A16B14200D100BFC1F3421501F0D0
:101BE0001F03012606FA03F3012D02D19689334023
:101BF00006E0022D02D1168A334001E0968A334076
:101C00000C12012606FA04F41688344013B10CB104
:101C1000012000E0002070BD10B50022002340F636
:101C20006A14A14200D100BF0A1201249440A3B259
:101C3000DC43048010BD0000003801400044004037
:101C400000480040004C0040005000400CB500200F
:101C5000019000906C48006840F480306A49086048
:101C600000BF6948006800F4003000900198401CF3
:101C70000190009818B90198B0F5A06FF1D16248B1
:101C8000006800F4003010B10120009001E0002055
:101C900000900098012843D15C48006840F0100093
:101CA0005A4908600846006820F0030008600846AA
:101CB000006840F00200086053484068524948609C
:101CC0000846406848600846406840F480604860C4
:101CD0000846406820F47C1048600846406840F49C
:101CE000E81048600846006840F08070086000BF57
:101CF0004548006800F000700028F9D0424840686C
:101D000020F00300404948600846406840F0020067
:101D1000486000BF3C48406800F00C000828F9D13A
:101D20000CBD10B5FFF792FF10BD10B53648006826
:101D300040F00100344908600846406834490840D2
:101D40003149486008460068324908402E49086019
:101D50000846006820F4802008600846406820F4A7
:101D6000FE0048604FF41F008860FFF7DAFF4FF075
:101D700000602949086010BD10B500210020002234
:101D8000214B5B6803F00C0121B1042906D008291E
:101D900028D107E0214B224C236027E01F4B204C29
:101DA000236023E0184B5B6803F47010164B5B68EC
:101DB00003F48032022303EB904022B9194B4343D2
:101DC000174C23600DE0104B5B6803F4003323B124
:101DD000144B4343124C236003E0104B4343104C1D
:101DE000236003E00D4B0E4C236000BF00BF064B89
:101DF0005B68C3F303130C4CE15C094B1B68CB40DD
:101E0000074C236010BD000000100240002002407B
:101E10000000FFF8FFFFF6FE08ED00E000127A0078
:101E20008800002000093D008C00002070477047AA
:101E3000704710B500F008F8006810BD10B50446F2
:101E400000F002F8046010BD00487047AC000020AC
:101E500000487047AC0000207546FFF7F9FFAE461A
:101E600005006946534620F00700854618B020B5A6
:101E7000FEF7BAF9BDE820404FF000064FF000072A
:101E80004FF000084FF0000B21F00701AC46ACE822
:101E9000C009ACE8C009ACE8C009ACE8C0098D468F
:101EA000704710B50446AFF300802046BDE81040EF
:101EB000FEF785B901491820ABBEFEE726000200F7
:101EC0007047490050EAC12018BF04204A0D18BFCE
:101ED00040F0010040F2FF72B2EB515F08BF40F0EA
:101EE0000200012808BF052070472DE9F0414F1E70
:101EF00000EBC7010446D1E9000115461E4637F044
:101F000006020DD02A46334601F09EF87F1E04EBF0
:101F1000C703D3E9002300F06FFD37F00602F1D1CB
:101F2000022F25D0042F13D0062F18BFBDE8F08153
:101F30002A46334601F088F8D4E90A2300F05CFD14
:101F40002A46334601F080F8D4E9082300F054FD16
:101F50002A46334601F078F8D4E9062300F04CFD18
:101F60002A46334601F070F8D4E9042300F044FD1A
:101F70002A46334601F068F8D4E9022300F03CFD1C
:101F80002A46334601F060F8D4E90023BDE8F04169
:101F900000F032BD002213461046014900F0E8BDB2
:101FA0000000F03F00F028BD002213461046114605
:101FB00000F0DEBD40F2013200204FF0E04101F0C0
:101FC000E6BB0000024A0020110701F0E0BB000060
:101FD00001FDFFFF2DE9F04D1D460C4698B0174658
:101FE00021F0004123F00043002814BF4FF0010C02
:101FF0004FF0000C0CEB440CFE4A0CEB02064FEACF
:10200000620C66452BD33E0018BF012606EB450641
:102010001644F94A964222D3F84A53EA070C02D0F2
:10202000944205D148B918B000201146BDE8F08DA2
:10203000002808BF4FF0000C01D04FF0010C0CEB52
:10204000440212F5001F0AD8002F14BF4FF0010CF4
:102050004FF0000C0CEB450212F5001F07D918B029
:102060003A462B462146BDE8F04DFFF79BBF0022C4
:10207000DFF88CA3002CB8BF534526DADFF884C301
:102080006345A8BF022220DADFF870C39C451CDC40
:10209000DFF874C30CEB235CBCF1140F08DDCCF14A
:1020A000340627FA06FC0CFA06F6BE420DD108E00B
:1020B0005FB9CCF1140623FA06FC0CFA06F69E4230
:1020C00003D10CF00102C2F1020251EA000C19D155
:1020D000002D17DA002C18BF022A01D0012A07D0E0
:1020E0000220FFF7ABFE18B0BDE8F04DFFF752BF7E
:1020F0000220FFF7A3FEFFF74DFF18B081F000416B
:10210000BDE8F08DB7F1000C6CD1534525D104F139
:10211000804212F5801201BF00280020B74918B094
:1021200008BFBDE8F08DB548884207DC002DA1BF8F
:102130006046294618B0BDE8F08D07E0281E05DA94
:1021400080F0004118B06046BDE8F08DAF49794499
:10215000D1E9000118B0BDE8F08DDFF8A0C26345F9
:1021600025D1002D1FDA19B1514512D1D8B909E096
:10217000002840F0EC82A24A214618B062F31E010A
:10218000BDE8F08D0020214618B060F31E01BDE8C7
:10219000F08D08DA18B02346BDE8F04D0246002065
:1021A000614600F0E5BC18B02146BDE8F08D514510
:1021B00018DAB5F1804F0DD0A5F1005CBCF1FF5CE1
:1021C00010D1B4F1000C0DDB18B06146BDE8F04D44
:1021D00000F0ECBB234618B00246BDE8F04D1946AE
:1021E00000F032BF060024F0004C3BD1D9B151457C
:1021F00033D1002C06DD002DA1BF0020514618B0C0
:10220000BDE8F08D002C01DD002D1BDB002C13DA66
:10221000002D11DB012A4FF0000014BF78497C49E2
:1022200018B0BDE8F08D022A18BF002C0AD0012A90
:1022300008D1002C06DA0AE0002CB8BF002D11DA14
:10224000012A04D0002018B00146BDE8F08D18B076
:1022500000204FF00041BDE8F08DA1F14050B0F1F9
:102260007F601AD0012000EBE47050EA020421D014
:10227000624C521E4FF0000B104304BF4FF0000B96
:10228000644C654883427CDD644A654893421FDDA7
:10229000884217DB002D25DB37E0002C00DA4AB13D
:1022A000022A0CBF01204FF0FF3018B0BDE8F04DFE
:1022B00000F013BE0120FFF7C1FD18B0BDE8F04DDE
:1022C000FFF772BE4D4A8A4202DC002D0ADC1CE098
:1022D000814202DA002D18DA04E0484B994220DDF1
:1022E000002D12DD0220FFF7A9FDFFF763FE054672
:1022F0000E46002253465846214600F0A5FE18B06F
:1023000066F31E012846BDE8F08D0220FFF796FD1A
:10231000FFF758FE0A46214618B062F31E01BDE8D9
:10232000F08D00223046614601F0B4F880460E463A
:102330006FF0010201F02BFA4FF05532394B00F0EB
:10234000B7FF4246334600F07FFE0022364B00F0D6
:10235000AFFF82464246334604911046194600F0CC
:1023600073FE5246049B00F06FFE8A4600904FF0C9
:10237000C0422E4B4046314600F066FE2C4A2B4BA5
:1023800000E027E0CDE906015146009800F05CFE30
:1023900082460191274A284B4046314600F054FEC0
:1023A0005246019B01F076F882460B4602460591A3
:1023B000DDE9060100F020FBDDE906230026884662
:1023C000304601F067F85246059B00F071FF024667
:1023D00000F07EB90020B1F5801F07DA35223046C3
:1023E000614601F0D4F906466FF0340000EB21504D
:1023F00024E00000FFFF1F00FFFF0F000000F03F80
:102400000000F07F0000404301FCFFFF5617000072
:102410000000F0FF0000F0BF0000E0410000F043CA
:10242000FFFFEF3F5555D53F0000E03F4715F73F11
:10243000FE822B6544DF5DF80BAE543EA0F2FF3008
:102440000190C1F3130040F07F6141F040510291CF
:10245000FE498842D8BF002004DDFD498142C8BF43
:10246000012001DD0D9008E000200D900198401C36
:1024700001900298A0F5801002900299F5487844E6
:102480000B910D9900EBC100D0E900230F9330466A
:102490000A920B9900F0FEFFCDE90601DDE90A2161
:1024A00030460F9B00F0A8FA02460B460020EA498E
:1024B00000F05EFB059102460B460090DDE9060147
:1024C00000F0C2FD1490E5488A464FF000087844B9
:1024D0000299006812904FF0005040EA61010D9897
:1024E0000F9B01EB804000F5002109910A9A129898
:1024F00000F0D0FF32460B9B00F0DAFE4246534616
:1025000000F0A2FD0646029140465146099B129AF0
:1025100000F09AFDDDE9062300F0CAFE3246029B78
:1025200000F0B8FF059B009A00F08EFD0091149A10
:10253000049053461046194600F086FD06460246B2
:10254000C7480B46029106217844FFF7CEFCCDE93F
:102550000510029B32461046194600F075FDDDE974
:10256000053200F071FD0591064653464046194676
:10257000149A00F041FA009B049A00F065FD32467F
:10258000059B00F039FACDE9051042465346104646
:10259000194600F059FD0022B24B02910A9000F05A
:1025A0002BFADDE9053200F027FA0E464246AD4B24
:1025B000404600F06FFF029B0A9A00F06BFFDDE9D6
:1025C000053200F075FE424602910A9033461046ED
:1025D000514600F039FDCDE906015346149A02999F
:1025E0000A9800F031FD8A4602903346424600992F
:1025F000049800F029FD5346029A00F0FDF9824646
:102600000B4602460591DDE9060100F0F5F9DDE92A
:10261000062300208846064600F03CFF5246059BF4
:1026200000F046FE824609914FF060428E4B3046E4
:10263000414600F009FD049006918C4A8A4B5046B1
:10264000099900F001FD82460291894A894B304682
:10265000414600F0F9FC5246029B00F0CDF9864B52
:102660007B440D9A03EBC203D3E9002300F0C4F9C5
:102670000E900791019800F030FC0591DDE90613FA
:1026800082460E9A049800F0B7F97C4A7A440D9B72
:1026900002EBC303D3E900230093029200F0ACF9EC
:1026A0005246059B00F0A8F900268846524630465F
:1026B000059B00F0EFFE009B029A00F0EBFE069BEC
:1026C000049A00F0E7FE079B0E9A00F0F1FD024627
:1026D00000200B4602903846294600F0B5FC8246A1
:1026E00001912B4638461946029A00F0D3FE324635
:1026F000434600F0A9FC5246019B00F07DF90746D5
:102700008A46324643462946029800F09DFC05461B
:102710000E463A46534600F06FF9594A88469142B0
:1027200021DBA8EB020353EA000210D12A4633460C
:1027300000F0B0FECDE90401524A534B38465146F1
:1027400000F05AF9DDE9042300F07CFD21D20220DB
:10275000FFF774FBFFF72EFC0A46214618B062F320
:102760001E01BDE8F08D494B28F000429A4210D37B
:10277000474A08EB020353EA00027FF4C6AD2A463B
:10278000334600F087FE3A46534600F05BFD7FF685
:10279000BCAD0022019228F000403E493E4A01EBC8
:1027A0002051824223DA481C4FF4801121FA00F0B4
:1027B00040443A4AC0F30A517A44394BA1F2FF31FE
:1027C000CB4020EA0303C0F3130040F48010C1F1B2
:1027D0001401C84012680190B8F1000FBCBF40421C
:1027E00001902846314600F055FE05460E462A4621
:1027F00033463846514600F0FFF84FF00008424695
:10280000284B4046059100F01FFCCDE90601264A01
:10281000264B4046059900F017FC009102902A468D
:1028200033464046059900F035FE3A46534600F0DF
:102830003FFD1F4A1F4B00F007FC009B029A00F06F
:10284000DBF80746884602460B4635E08E980300C3
:102850007AB60B009E1300000000F03FD613000074
:10286000041300000000084009C7EE3FFD033ADCF6
:10287000F5015B14E02F3EBEDC110000A01100004A
:1028800000009040FE822B654715973C00CC90409D
:1028900000346F3F01FCFFFF0000E03FEC10000040
:1028A000FFFF0F00432EE63F396CA80C615C20BE91
:1028B000EF39FAFE422EE63FDDE9060100F09CF812
:1028C000DDE9062305460E4600F0E4FD3A464346A0
:1028D00000F0EEFC0F462A4633460090104619469B
:1028E00000F0B2FB824602462E4888460B46052180
:1028F0007844FFF7FAFA5246434600F0A5FB2A4611
:10290000334600F0D5FC80468A463B462846314691
:10291000009A00F099FB3B46009A00F06DF8069192
:10292000009000224FF080434046514600F0B2FD37
:102930000F460C90424653462846314600F084FB31
:102940003B460C9A00F014F9069B009A00F0A2FD99
:102950002A46334600F09EFD0022134B00F0A8FCEF
:10296000054601980E4601EB00510815002810DCC1
:1029700028463146019A00F00AFFFFF7A2FA042820
:1029800008BFFFF71FFB28463146019A00F0FFFE03
:1029900005460B4618B02A4658462146BDE8F04D7C
:1029A00000F052BB8C0F00000000F03F2DE9F04119
:1029B00006460F4600F088FC041E0D4618BF012095
:1029C000284320F00040C0F17F6000F1E040C00FDC
:1029D0000ED0301C18BF0120384320F00040C0F159
:1029E0007F6000F1E040C00F04BF0120FFF726FA2E
:1029F00020462946BDE8F08110B591EA030F48BF93
:102A000083F0004300F14E85841A71EB030C05D26C
:102A1000121943EB0C03001B61EB0C01DFF824E1FE
:102A20004FEA1154A4EB135C1EEA430F18BF9EEA51
:102A3000445F73D023EA0E03DCF1200E21EA045137
:102A400043F4801332D322FA0CFE10EB0E0023FA6B
:102A50000CFE41EB0E01CCF1200E03FA0EFE10EB42
:102A60000E0051F10001B1F5801FCCF1200E32D2E1
:102A700001EB045112FA0EF2BDE8104058BF704746
:102A8000401C38BF5FEA420218BF7047002814BFDD
:102A900020F0010041F100014FEA410313F5001F4E
:102AA00038BF7047A1F1C04100F0C6BB012A43EB1B
:102AB0000302ACF1200CDCF11F0E32BF4FF0000E10
:102AC00023FA0CF310EB030041EB0451B4EB115F5C
:102AD000D0D0A1EB045101F5801149085FEA300024
:102AE00001EB04510ED350F1000038BF12FA0EFE74
:102AF00008D1BDE81040C9E7401C38BF5FEA420278
:102B0000CAD1C3E7BDE810404FEA410313F5001FE7
:102B100038BF7047A1F1C04100F08EBB9EEA445F10
:102B200008D011EA5E0FBDE8104004BF01F000417B
:102B300000207047BDE8104070B500F02FFB00BFCB
:102B400064FBBE3E0000E0FF02494FF0000000F0D1
:102B5000ECBD00BF0000F87F491058BFC1F14041F3
:102B60005B1058BFC3F140438B42EFF300807047C6
:102B70002DE9C04130B4DFF8A0C23CEA111418BFFF
:102B80003CEA131400F0EC8081EA03051CEA1114FE
:102B900044EAD57418BF1CEA131500F0C780A4EBF3
:102BA00005044FF0004545EAC12145EAC32341EA47
:102BB000505143EA525304F17F74994204F50034B2
:102BC0004FEAC0204FEAC22208BF904200F09C802A
:102BD0004FEA13650FF24016765D4FEA134506FB88
:102BE00005F7C7F1807706FB07F74FEAD737A7FB52
:102BF00003687642C8F58038A7FB06CE38BFA8F137
:102C0000010807FB08E64FF0000EA6FB028CE6FB6E
:102C100003CEDCF1000CCEF1004E38BFAEF1010E58
:102C2000A6FB0C584FF000074FF00005E6FB0E879F
:102C3000A1FB08C6A0FB07CE16EB0E0645F100056A
:102C4000E1FB076515F1E04E7EBFA4F580345FEA35
:102C500046066D4116F1800745F100054FEA17273A
:102C60004FEA066647EA0567A6F1DE46B6F1805FE1
:102C70004FEA15251FD9384624F0010C05EBC47125
:102C8000BCF1FE6F01EB0C1102D8F0BCBDE8008175
:102C900024425CBF01F5801E9EEAC47F02D4F0BCD2
:102CA000BDE80081244238D4F0BCA1F1C041BDE8A8
:102CB000004100F0C1BA4FEAD22242EA43524FEA41
:102CC000D323A7FB02864FEAD02040EA415007FBFE
:102CD00003661EEA0E0F4FEAD12105FB026658BFBC
:102CE000A6EB0056B6EB00564FEA520E4EEAC37EF4
:102CF00018EB0E0E56EB530EBDD518EB02085E41D5
:102D00007F1C55F10005B6E74FF480154FF0000722
:102D10004FF000064FF00008ADE7F0BC4FF00000A8
:102D200001F1C04101F00041BDE8008111EA0C1F32
:102D30000CEA131500D00CE013EA0C1F00F02580FC
:102D40004FF00000F0BC81EA030101F00041BDE852
:102D50000081F0BCBDE8004181EA030100F06CBADB
:102D6000F0BCBDE8004170B500F018FA097EFC3EE9
:102D700000F007B881EA03014FF0000001F00041C4
:102D8000704781EA030100F057BAF0BCBDE800418A
:102D90004FF0000021497047FFFDFBF9F7F5F4F211
:102DA000F0EEEDEBE9E8E6E4E3E1E0DEDDDBDAD8E6
:102DB000D7D5D4D3D1D0CFCDCCCBCAC8C7C6C5C444
:102DC000C2C1C0BFBEBDBCBBBAB9B8B7B6B5B4B35B
:102DD000B2B1B0AFAEADACABAAA9A8A8A7A6A5A446
:102DE000A3A3A2A1A09F9F9E9D9C9C9B9A9999980A
:102DF0009797969595949393929191908F8F8E8EAD
:102E00008D8C8C8B8B8A8989888887878685858439
:102E100084838382828181800000FF070000F87F25
:102E20004FEA41034FEA5353A3F58063D3F11E03E6
:102E3000C8BFD3F1210C0CDD4FF0004242EAC122A1
:102E400042EA505232FA03FC8CEAE17CACEBE170CE
:102E50007047102BC4BF0020704703F5787CBCF18D
:102E6000FF3F04D06FF0004282EA2100704770B546
:102E700000F094F94992248000207047F2E70000A6
:102E80004FEA1153A3F58063D3F11E03A8BFD3F11A
:102E9000200C08DB4FF0004242EAC12252EA5052B5
:102EA00032FA03F0704709420BD4102BC4BF002044
:102EB000704703F5787CBCF1FF3F05D04FF0FF3041
:102EC00070474FF00000704770B500F067F900BF21
:102ED0004992248000207047F0E710F0004248BF7C
:102EE0004042B0FA80F310FA03F10AD0C3F11D0397
:102EF00003F580634FEA415002EB035202EBD1210C
:102F000070474FF0000070477FEAE17202D1101A5B
:102F100062EB0101B1FA81F30B3B24D3994012D14A
:102F2000B0FA80F310FA03F108BF7047C3F11D0334
:102F300003F5406303EBC2234FEAD1224FEA41502D
:102F400002EB03517047C3F1200C20FA0CFC9840AF
:102F5000C3F1320303F5406303EBC22341EA0C01E2
:102F600001EB0351704710B5C3F1320CC3F10004FB
:102F7000C4F1200E0CF5406C0CEBC22201FA0EFCE1
:102F800021FA04F100FA0EF3E040BDE8104040EAF7
:102F90000C0001EB025138BF7047401C41F10001A9
:102FA0005B0008BF20F001007047B0FA80F310FA10
:102FB00003F10AD0C3F11D0303F580634FEA4150CA
:102FC0004FEA035202EBD12170474FF000007047E7
:102FD00051EA030C17D41CF5801F58BFBCF5801FA5
:102FE00000F10680994218BF704708BF90427047B1
:102FF00007D711F5801F58BF13F5801F19D49942C8
:103000007047894270471CF5801F08D5BCF5801FAA
:10301000F7D58B4218BF704708BF824270474FF404
:10302000001C1CEB410F38BF1CEB430F01D28B423D
:10303000704770B500F0B2F8922449004FF000518B
:103040004FF08053FFF788BDDFF848C170B51CEA28
:10305000111E1EBF1CEA13159EEA0C0F95EA0C0FF9
:1030600000F06F8081EA030423EA4C134EEAD47E19
:1030700021EA4C1141F4801143F48013AE44A1FBCA
:10308000024CA0FB0365AEF17F7E361955EB0C05B3
:10309000A1FB034C4CF10003A0FB021C16EB0C0639
:1030A000654153F10003094218BF46F0010613F4CD
:1030B000007F0BD14FEA03314FEA0530340341EA78
:1030C000155140EA16506FF003020AE04FEAC3219F
:1030D0004FEAC520F40241EA555140EA56506FF0DC
:1030E000020202EB2E4201EB025585EACE710AD0B4
:1030F0005FEA440C18BF24F0004450F1000041F195
:10310000000120EAD47040F2FE7C624500D270BD1E
:10311000A84214BF4FF080444FF04044002E08BF37
:103120000024BEF1806FA8BFA1F1C041BDE870408E
:1031300080F282804FF0000001F1C04101F00041B7
:1031400070479EEA0C0F0CEA131518BF95EA0C0F96
:1031500006D04FF0000081EA030E0EF0004170BD72
:1031600000F01CF88900013E00F007B800F009B833
:103170004FEA430C5FEA5C5C08D081EA030100F08F
:103180005BB84FEA410C5FEA5C5CF6D14FF000009F
:10319000014970470000FF070000F87F0EF1020EA2
:1031A0002EF0030E5EF8046B364205D4012A43EB81
:1031B000030515F5001F12D8012841EB010C1CF581
:1031C000001F0CD80ED14FEAD17C15F5001F0CEB77
:1031D0004C0C0CF1020C08BF4CEBD37C04E04FF01C
:1031E000080C01E04FEAD37C0CEB4C0526FA05F6FF
:1031F00006F00706B6F1040C06D20EEB860CBDE80D
:1032000070404CF0010C6047DFE80CF0090B020243
:103210004FF000414FF00000A1F5002170BD1946AC
:103220001046012851EB010418BFD4F5001484BFE7
:10323000002001F0004170BD0808A0F500114FEA20
:103240003101704753EA010C17D41CF5801F58BF99
:10325000BCF5801F00F106808B4218BF704708BF85
:103260008242704707D713F5801F58BF11F5801FA2
:1032700019D48B4270479B4270471CF5801F08D5BC
:10328000BCF5801FF7D5994218BF704708BF904220
:1032900070474FF4001C1CEB430F38BF1CEB410F71
:1032A00001D2994270470FB40CBC03BCFFF7C1BEFA
:1032B00091EA030F10B581F000413FF5A5AB83F013
:1032C000004300F0EFB800002DE9F04101F5801C4B
:1032D000BCF5001FC0F2C3804FEA115C21EA0C511B
:1032E0000CF1FD0C41F480115FEA5C0C0CF5C07C24
:1032F00001D3400049413DA4890241EA905187022F
:103300008E0E0A0CA45D04FB04F602FB06F6C6F161
:103310004046A4FB0662F60D46EA422606FB06F48A
:10332000A4FB01235242C3F1404338BF5B1EA6FBFE
:1033300002420024E6FB0324D20B42EA4446A6FBE9
:103340000623A1FB02E2A3FB07E4A4184FF000024E
:1033500052F10002E3FB01426442C2F1404E38BF29
:10336000AEF1010EA6FB04234FF00002E6FB0E3285
:10337000A2FB03464FF00004B61954F10004E2FB2F
:103380000264A1FB06E6A4FB07E816EB08064FF073
:10339000000858F10008E4FB01687642C8F1405883
:1033A00038BFA8F10108A2FB06E4A3FB08E52D192C
:1033B0004FF0000454F10004E2FB0854A1FB05E6C1
:1033C000A7FB04E818EB06084FF0000656F10006CC
:1033D000E1FB048618F1200556F10006A809A8F1C2
:1033E0001B08B10908F03F08B8F10A0F40EA8660EF
:1033F0001CD901EB0C51BDE8F08100BFFCF5EEE8F3
:10340000E2DDD8D3CFCBC7C3C0BDB9B6B4B1AEAC83
:10341000A9A7A5A3A19F9D9B9A9896959392908FFB
:103420008D8C8B898887868584838281A0FB006848
:1034300000FB01F208EB4208B8EB872807D53418E7
:1034400058EB0104D5D5401C51F10001D1E7341AE5
:1034500078EB0104CDD4401E71F10001C9E75FEAA9
:103460004C0C5FEA9C5C0DD105D34FF0000001F0DD
:103470000041BDE8F081BDE8F04170B5FFF78EFE78
:103480006DDBFFBEBDE8F0414FF000000049704722
:103490000000F87F10B591EA030F48BF83F00043A6
:1034A0003FF5B2AA841A71EB030C07D212198CF003
:1034B000004C43EB0C03001B61EB0C01DFF8A4E1B3
:1034C0004FEA1154A4EB135C1EEA430F18BF9EEAA7
:1034D000445F00F0B08023EA6E03524221EA0451B7
:1034E000C3EB6E0338BF5B1EDCF1200E25D322FA3E
:1034F0000CFE10EB0E0043FA0CFE41EB0E01CCF17A
:10350000200E03FA0EFE10EB0E0051F10001CCF17B
:10351000200E29D412FA0EF201EB0451BDE810403E
:1035200058BF7047401C1CBFB2F1004F70470028C5
:103530000CBF491C20F00100704712EB020E43EB58
:10354000030218BF4FF0010E4EEA4202ACF1200C0C
:10355000DCF11E0E54D943FA0CFE10EB0E0051F1B3
:10356000FF31CCF11E0ED5D50EF1010E12FA0EFE72
:10357000404141EB010101EB445C5FEA5C5C10D926
:1035800010EBDE7001EB045138BFBEF1004FBDE817
:10359000104018BF704700280CBF491C20F00100E4
:1035A000704730D24FEAD42C11F5001124F4006496
:1035B0001BD0B1FA81F20B3AA41AA41ED2F1200357
:1035C000914030FA03F31943904001EBCC71002C89
:1035D00001EB0451BDE81040A8BF704701F1C041A4
:1035E0004FF0000001F000417047B0FA80F310FA8C
:1035F00003F100D110BDE41A173C4805C90AE4E7FD
:1036000001EB045110BD491001EB0451BDE810401D
:103610004FEA300002E04FF0000170474A0008BF57
:103620000042F8D0B2F5001F28BF704701F00041FA
:103630004FF0000070479EEA445F07D011EA5E0F2A
:10364000BDE8104004BF002100207047BDE81040D5
:1036500070B5FFF7A3FD00BF40DFF63E83F00041E9
:10366000104670470000E0FF4FEAC1230A1543EA05
:1036700050534FEAC02C18BF43F000431BD4A2F2B2
:103680004E02D2F57C7240F34280502AA8BF5022ED
:1036900023FA02F12CFA02F0D2F1200260B403FA0C
:1036A00002F588BF2843C2F1000223FA02F598BF51
:1036B000284360BC704702F57C7212F5826F08BF28
:1036C00023F00043D2F12E0221DB1AD0502AA8BFEA
:1036D000502223FA02F12CFA02F0D2F1200260B457
:1036E00003FA02F588BF2843C2F1000223FA02F56B
:1036F00098BF284360BC4042C1F1000138BF491E59
:1037000070479CF0000F08BF93F0004FDED070B5FB
:10371000FFF744FD9224498000214FF000007047DC
:103720006FEAE17080F0004170470CF00F03092B45
:1037300008BF082000F059800A2B0BD0082B18BFB7
:10374000704708BF1CF0400F0AD04FF000004FF048
:10375000000170471CF0400F18BF4FF00040704749
:103760001CF0100F08D020F0704300F07F4242EAB6
:10377000D3014FEA4370704700F0604021F07F4270
:1037800042EA000201F07F4040EA727070474FF059
:10379000FF0C4CF4E06C1CEA11531CBF9CEA030CB8
:1037A0009445C2BFDA4201EB02517047002B0DD0A5
:1037B000BCF1000F0FD0002A01F00041A4BF41F07E
:1037C000E04141F07F614FF00000704701F000419F
:1037D0004FF00000704750EA01334FF09B0C18BFC8
:1037E0004CF0806C7FF4B0A970471CF4801F11D09E
:1037F0001CF4E02F03D06FEACC31490070474FF042
:103800004050EFF3008222F0704242EA000282F35D
:10381000008870474FF00000704700000000000073
:10382000000000000000F03F000000000000F83F32
:1038300000000000000000000000004003B8E23F6C
:10384000000000000000000006D0CF43EBFD4C3E1E
:10385000033333333333E33FFFAB6FDBB66DDB3F13
:103860004D268F515555D53F01411DA96074D13F5B
:1038700065DBC9934A86CD3FEF4E454A287ECA3F55
:103880003E5555555555C53F93BDBE166CC166BFD7
:103890002CDE25AF6A56113FF16BD2C541BDBBBED0
:1038A000D0A4BE726937663E000000000000000030
:1038B000D0380008000000209C0000006C010008C7
:1038C0006C3900089C000020740600008801000884
:1038D00000000000000000000000000000000000E8
:1038E0000000000000000000000000000000323175
:1038F0003433363538374039424144430B450000B4
:1039000000000000000000000000000000000000B7
:1039100000000000000000000000000000000000A7
:103920000000000000000000000000000000000097
:103930000000000000000000000000000000000087
:103940000000000000000000010203040102030463
:10395000060708090204060800A24A040000000045
:0C39600000000000010203040607080933
:04000005080001CD21
:00000001FF
